S01E000053454E534F52535F50524553535552455F44454D4F312E737265634C
S11300007AC100009EC100009CC100009AC100009A
S113001098C1000096C1000094C1000092C1000084
S113002090C100008EC100008CC100008AC1000094
S113003088C100000C944A0B84C1000082C10000F6
S113004080C100007EC100007CC100007AC10000B4
S113005078C1000076C1000074C1000072C10000C4
S113006070C100006EC100006CC100006AC10000D4
S113007068C1000066C1000064C1000062C10000E4
S113008060C100005EC100005CC100005AC10000F4
S113009058C1000056C1000054C1000052C1000004
S11300A050C100004EC100004CC100004AC1000014
S11300B048C1000046C100000C94AE0B42C10000D0
S11300C040C100003EC100003CC100003AC1000034
S11300D038C1000036C1000034C1000032C1000044
S11300E030C100002EC100002CC100002AC1000054
S11300F028C1000026C1000024C1000022C1000064
S113010020C100001EC100001CC100001AC1000073
S113011018C1000016C1000014C1000012C1000083
S113012010C100000EC100000CC100000AC1000093
S11301300C947C0B06C1000004C1000002C1000045
S113014000C10000FEC00000FCC00000FAC00000B6
S1130150F8C00000F6C00000F4C00000F2C00000C7
S1130160F0C00000EEC00000ECC00000EAC00000D7
S1130170E8C00000E6C00000E4C00000E2C00000E7
S1130180E0C00000DEC00000DCC00000DAC00000F7
S1130190D8C00000D6C00000D4C00000D2C0000007
S11301A0D1C00000CEC00000CCC000000C94E00B15
S11301B0C8C00000C6C00000C4C00000C2C0000027
S11301C0C0C00000BEC00000BCC00000BAC0000037
S11301D0B8C00000B6C00000B4C00000B2C0000047
S11301E0B0C00000AEC00000ACC00000AAC0000057
S11301F0A8C000006E616E00696E660000407A104F
S1130200F35A00A0724E18090010A5D4E80000E8C3
S11302107648170000E40B54020000CA9A3B000021
S113022000E1F505000080969800000040420F00B0
S11302300000A08601000000102700000000E80371
S1130240000000006400000000000A00000000003C
S11302500100000000002C76D888DC674F0823DFFB
S1130260C1DFAE59E1B1B796E5E3E453C63AE651CE
S1130270997696E8E6C28426EB898C9B62ED407CF5
S11302806FFCEFBC9C9F40F2BAA56FA5F490055A91
S11302902AF75C936B6CF9676DC11BFCE0E40D47B6
S11302A0FEF520E6B500D0ED902E030094357705D9
S11302B00080841E080000204E0A000000C80C3391
S11302C03333330F986E12831141EF8D2114893B20
S11302D0E65516CFFEE6DB18D1844B381BF77C1DA0
S11302E0901DA4BBE424203284725E228100C9F1F3
S11302F024ECA1E53D2711241FBECFEFDFE3DEBFD1
S1130300CDBF00E00CBF18BE19BE1ABE1BBE10E262
S1130310A0E0B0E2EAEBF1E300E00BBF02C007901B
S11303200D92AC3EB107D9F71BBE21E2ACEEB0E2B0
S113033001C01D92AA32B207E1F70E94290F0C9462
S1130340DB185ECE1F920F920FB60F92112408B6DF
S11303500F9218BE09B60F9219BE0BB60F921BBEB0
S11303602F933F934F935F936F937F938F939F93B9
S1130370AF93BF93EF93FF93E091EC20F091ED20C6
S1130380309761F0A0EAB6E018968C9182FF06C01F
S11303908091EE209091EF20199523C0E091F020F8
S11303A0F091F120309761F0A0EAB6E018968C91B4
S11303B083FF06C08091F2209091F320199511C01B
S11303C0E091F420F091F520309759F0A0EAB6E0DE
S11303D018968C9184FF05C08091F6209091F720A7
S11303E0199581E0E0EAF6E08487FF91EF91BF91EF
S11303F0AF919F918F917F916F915F914F913F91B9
S11304002F910F900BBE0F9009BE0F9008BE0F9056
S11304100FBE0F901F90189543E050E064E080EA0F
S113042096E059D040E050E068E080EA96E053D08E
S1130430F89487E0E0EAF0E08283789408958FEFFF
S11304408093700080937100809372008093730096
S113045080937400809375008093760061E081E45A
S113046090E00E94AF0AE0E5F0E0818184FD19C0CC
S1130470818181FD09C08FB7F89490819260908347
S11304808FBF818181FFFDCF8FB7F894E0E5F0E065
S113049098E895839081906190838FBF818184FFD8
S11304A0FDCF64E080E490E00E94AF0A8FB7F89437
S11304B0E0E5F0E090819E7F90838FBF08959FB721
S11304C0F894E82FF0E0E059FF4F609580816823AD
S11304D060839FBF0895CF93DF93FC01709620E063
S11304E030E0C62FD0E0DE01022E02C0B595A795FC
S11304F00A94E2F7A0FD50832F5F3F4F31962830D6
S1130500310589F740FF0AC041FF03C0FC01658340
S113051002C0FC016683FC01618302C0FC016283AA
S1130520DF91CF9108950F931F93CF93DF931F9281
S1130530CDB7DEB7FC0100811181603199F5FA0174
S11305408081863028F4843048F4813049F509C02C
S1130550873079F050F08B3019F50FC01092F820E5
S113056016C081E08093F82012C082E08093F820C6
S11305700EC083E08093F8200AC086EB898321E0D3
S113058030E0AE014F5F5F4F60EEC80153D68091FB
S1130590F82090E04096F801868F978F81E008C09C
S11305A080E006C020E030E8FC012783308780E04B
S11305B00F90DF91CF911F910F910895CF93DF9307
S11305C0CDB7DEB76697CDBFDEBFAE014F5F5F4FDD
S11305D026E1FA0111922A95E9F726E130E06AEA68
S11305E0EAD5398120E04A81242B2093F9203093E5
S11305F0FA203B8120E04C81242B2093FB20309374
S1130600FC203D8120E04E81242B2093FD2030935B
S1130610FE203F8120E04885242B2093FF20309347
S11306200021398520E04A85242B20930121309331
S113063002213B8520E04C85242B20930321309319
S113064004213D8520E04E85242B20930521309301
S113065006213F8520E04889242B209307213093ED
S11306600821398920E04A89242B209309213093D9
S11306700A213B8920E04C89242B20930B213093C1
S11306800C213D8920E04E89242B20930D213093A9
S11306900E2121E0469709F020E0822F6696CDBF17
S11306A0DEBFDF91CF9108950F931F93CF93DF9314
S11306B000D0CDB7DEB7082F192F8EE28B8321E04F
S11306C030E0AE014D5F5F4F64EF802FB3D520E083
S11306D030E02F5F3F4F2A3288E63807D1F722E017
S11306E030E0AE014F5F5F4F66EF802F912F63D5EF
S11306F0892B59F0098110E020E030E0322F212FBE
S1130700102F00278A81082B03C00FEF1FEF9801D9
S1130710602F712F822F932F2396CDBFDEBFDF91E1
S1130720CF911F910F9108954F925F926F927F9294
S11307308F929F92AF92BF92CF92DF92EF92FF92ED
S11307400F931F93CF93DF93CDB7DEB72C97CDBF15
S1130750DEBF4A01663039F0693009F40BC26330F8
S113076009F099C26FC2FC01608071808091F82009
S11307708295880F880F807C8C5C8C8321E030E02C
S1130780AE014C5F5F4F64EF862D972D53D5E3E0A8
S1130790F0E00090F82002C0EE0FFF1F0A94E2F789
S11307A032969F2F990F990BA12C0F2EF8E4BF2E90
S11307B0F02D0F2EF8EECF2EF02DDD24D394E12C66
S11307C0F12C00E010E02E2F3F2F492F592F692FD5
S11307D0792F892F0E942B1529513C4F4F4F5F4F82
S11307E06F4F7F4F8F4F9F4F0E949C1020E030E847
S11307F04BEB55E40E94BD0F0E942A10F22FE32F09
S11308008F2F9E2FA42FB52F0197A109B109E1F7CE
S113081023E030E0AE014F5F5F4F66EF862D972DEA
S1130820CAD4892B69F08981CA80D12CE12CF12C9E
S1130830FE2CED2CDC2CCC24E82A8B81C82A04C0A5
S1130840CC24CA94DC2C76012091F82088E090E036
S1130850821B910904C0F594E794D794C7948A95B0
S1130860D2F7F4018089811106C0C082D182E2826C
S1130870F38281E016C2862D972D16DF2091032185
S1130880309104212B013C01421A530A610871087A
S1130890A3019201A0910121B09102210E941B1594
S11308A02B013C01032E3FE07594679457944794C1
S11308B03A95D1F7302D60910B2170910C21CB0129
S11308C0AA2797FDA095BA2FBC01CD01052E5BE0A8
S11308D0660F771F881F991F5A95D1F7502D2091C5
S11308E00D2130910E218901222717FD2095322FE9
S11308F0A9019801240D351D461D571D0E94F414AD
S1130900420E531E641E751E00EA401A0FE0500A80
S113091061087108A3019201C301B2010E94C314CA
S11309208B019C010F2EFCE03595279517950795B3
S1130930FA95D1F7F02D0D831E832F833887E0912C
S1130940F820A091FD20B091FE20A30192010E9405
S113095025158B019C010F2EFDE0359527951795E4
S11309600795FA95D1F7F02D09871A872B873C87CD
S1130970A0910521B09106212D813E814F8158859A
S11309800E942515BB2797FDB095AB2F09851A85C5
S11309902B853C85800F911FA21FB31F0296A11DBA
S11309A0B11DB595A79597958795B595A7959795F5
S11309B087959C01AD0130584F4F5F4FA091FF20A8
S11309C0B09100210E941B158B019C010F2EFFE0AA
S11309D03695279517950795FA95D1F7F02D098740
S11309E01A872B873C87A0910721B09108212D817C
S11309F03E814F8158850E9425158B019C010F2E45
S1130A00FBE03595279517950795FA95D1F7F02DC5
S1130A100D831E832F833887A091FB20B091FC2087
S1130A20A30192010E942515DC01CB01072E7BE076
S1130A30B595A795979587957A95D1F7702D4D80A3
S1130A405E806F807884840D951DA61DB71D40912E
S1130A50F9205091FA20662757FD6095762F440FB0
S1130A60551F661F771F440F551F661F771F840F7E
S1130A70951FA61FB71F0E2E04C0880F991FAA1F0B
S1130A80BB1F0A94D2F70296A11DB11DB595A79577
S1130A9097958795B595A79597958795A7019601FD
S1130AA0281B390B4A0B5B0B80E593ECA0E0B0E00C
S1130AB0BC01CD0104C09595879577956795EA9516
S1130AC0D2F70E94C31499236CF0660F771F881F16
S1130AD0991F29853A854B855C850E94D21469014A
S1130AE07A010CC029853A854B855C850E94D21415
S1130AF069017A01CC0CDD1CEE1CFF1C9927F7FC64
S1130B009A958F2D7E2D6D2D9B01AC010E94C314EF
S1130B109B01AC01AEEDBBE00E941B152C017724B8
S1130B2057FC7094672CA3E4B3EEA70196010E94CE
S1130B302715BB2797FDB095AB2F480E591E6A1E8B
S1130B407B1E0FEC400E0EE0501E611C711C68945D
S1130B5013F875946794579447941694D1F7C40C7A
S1130B60D51CE61CF71CF401C082D182E282F38218
S1130B7081E097C0FC018081918196DDF401208998
S1130B80211106C0608371838283938381E089C0CD
S1130B9020910321309104212B013C01421A530A74
S1130BA061087108A3019201A0910121B091022171
S1130BB00E941B156B017C010B2EBFE0F594E7949A
S1130BC0D794C794BA95D1F7B02D60910B21709149
S1130BD00C21CB01AA2797FDA095BA2FBC01CD010A
S1130BE0052E5BE0660F771F881F991F5A95D1F772
S1130BF0502D20910D2130910E218901222717FDBE
S1130C002095322FA90198012C0D3D1D4E1D5F1D0D
S1130C100E94F414C20ED31EE41EF51E08E0C00E9A
S1130C20D11CE11CF11C689413F8F594E794D79453
S1130C30C7941694D1F7F401C082D182E282F38280
S1130C4081E02FC0FC01E080F1801C8221E030E0D3
S1130C50AE014C5F5F4F60EDC701ADD24C8150E0F7
S1130C6060E070E0F40140835183628373831C82EB
S1130C7021E030E0AE014C5F5F4F61EDC7019BD2D4
S1130C808C8190E0A0E0B0E0F40184839583A68396
S1130C90B78381E006C020E032E8FC012783308777
S1130CA080E02C96CDBFDEBFDF91CF911F910F91D5
S1130CB0FF90EF90DF90CF90BF90AF909F908F9078
S1130CC07F906F905F904F900895CF92DF92EF9254
S1130CD0FF920F931F93CF93DF931F92CDB7DEB78D
S1130CE07C01FC0100811181198221E030E0AE0118
S1130CF04F5F5F4F60ED802F912F5DD229812535A5
S1130D00E9F4198221E030E0AE014F5F5F4F61EDFD
S1130D10802F912F50D28981813091F4C8014EDC0B
S1130D2026E630E2F7012283338391E09093F820A2
S1130D3021E130E0F801268F378F03C080E001C045
S1130D4080E00F90DF91CF911F910F91FF90EF9072
S1130D50DF90CF900895CF92DF92EF92FF920F939E
S1130D601F93CF93DF93EC018B016A017901CB01CF
S1130D70B6D2888399830C831D83EB86FC86009707
S1130D8079F0DC019096ED91FC919197B601CE013A
S1130D901995882329F081E08E831F82188605C067
S1130DA080E092E08F83988780E0DF91CF911F915C
S1130DB00F91FF90EF90DF90CF9008951F93CF9302
S1130DC0DF93EA01DC011296ED91FC9113970190F7
S1130DD0F081E02D309729F01995182F811108C062
S1130DE00CC020E032E8FC012783308710E005C006
S1130DF06AD26C877D878E879F87812FDF91CF9101
S1130E001F910895CF92DF92EF92FF920F931F9359
S1130E10CF93DF93CDB7DEB76197CDBFDEBF6B0154
S1130E207A01AE014F5F5F4F63E0C8DF882361F052
S1130E3009811A812B813C81F6010083118322836D
S1130E4033839D81F70190836196CDBFDEBFDF912F
S1130E50CF911F910F91FF90EF90DF90CF90089565
S1130E600F931F93CF93DF931F92CDB7DEB78C01FF
S1130E706983D80116969C911697961701F11296DC
S1130E80ED91FC9113970280F381E02D309749F0A6
S1130E90AE014F5F5F4F60E1C8011995811107C032
S1130EA00FC080E092E8F8018783908708C0998199
S1130EB09B3009F491E0D80116969C9301C080E020
S1130EC00F90DF91CF911F910F9108950F931F936E
S1130ED0CF93DF93CDB7DEB72997CDBFDEBF8C01AB
S1130EE0FE01319689E0DF011D928A95E9F7498375
S1130EF05A836B837C839A01AB01220F331F441FF7
S1130F00551F60E078E488EE91E00E94D214DA0183
S1130F10C9010597A109B1098D839E83AF83B88761
S1130F200115110509F436C1003C110521F460E1F5
S1130F3080E0C5DA2FC10034B4E01B0721F468E077
S1130F4080E0BDDA27C1011584E0180721F464E0CC
S1130F5080E0B5DA1FC10038A1E01A0721F462E08D
S1130F6080E0ADDA17C10115B1E01B0721F461E09F
S1130F7080E0A5DA0FC1003883E0180721F461E0AE
S1130F8081E09DDA07C10039A3E01A0721F461E08A
S1130F9082E095DAFFC00115B2E01B0721F462E09C
S1130FA081E08DDAF7C0003482E0180721F462E0B2
S1130FB082E085DAEFC00115A3E01A0721F464E0AA
S1130FC081E07DDAE7C00032B3E01B0721F464E07E
S1130FD082E075DADFC0011588E0180721F461E0CA
S1130FE083E06DDAD7C00115A9E01A0721F461E0A6
S1130FF084E065DACFC00115BAE01B0721F461E093
S113100085E05DDAC7C001158BE0180721F461E0C3
S113101086E055DABFC00034A8E01A0721F462E084
S113102083E04DDAB7C00034B9E01B0721F462E075
S113103084E045DAAFC000348AE0180721F462E0A6
S113104085E03DDAA7C00034ABE01A0721F462E082
S113105086E035DA9FC00039B8E01B0721F464E06C
S113106083E02DDA97C0003989E0180721F464E0A1
S113107084E025DA8FC00039AAE01A0721F464E07D
S113108085E01DDA87C00039BBE01B0721F464E06A
S113109086E015DA7FC0003C88E0180721F468E098
S11310A083E00DDA77C0003CA9E01A0721F468E078
S11310B084E005DA6FC0003CBAE01B0721F468E065
S11310C085E0FDD967C0003C8BE0180721F468E097
S11310D086E0F5D95FC0003AA8E01A0721F460E180
S11310E083E0EDD957C0003AB9E01B0721F460E171
S11310F084E0E5D94FC0003A8AE0180721F460E1A2
S113110085E0DDD947C0003AABE01A0721F460E17D
S113111086E0D5D93FC0003BB8E01B0721F460E26C
S113112083E0CDD937C0003B89E0180721F460E2A1
S113113084E0C5D92FC0003BAAE01A0721F460E27D
S113114085E0BDD927C0003BBBE01B0721F460E26A
S113115086E0B5D91FC0003884E0180721F460E4A4
S113116083E0ADD917C00039A4E01A0721F460E484
S113117084E0A5D90FC0003AB4E01B0721F460E471
S113118085E09DD907C0003B84E0180719F460E4AA
S113119086E095D9BE016F5F7F4FC80143D391E0CC
S11311A0811190E0892F2996CDBFDEBFDF91CF91C9
S11311B01F910F910895EF92FF920F931F93CF9376
S11311C0DF93CDB7DEB72B97CDBFDEBF8C0179019E
S11311D0FE0131968BE0DF011D928A95E9F7D80173
S11311E013968C91139789836A8381E090E08D83B1
S11311F09E834F83588729873A8716968C91169732
S11312008B8741E0BF0111968D919C9112971FD35A
S1131210F8018583882311F0E12CF12C8E2D9F2D6C
S11312202B96CDBFDEBFDF91CF911F910F91FF9021
S1131230EF900895EF92FF920F931F93CF93DF9354
S1131240CDB7DEB72B97CDBFDEBF8C017901FE0190
S113125031968BE0DF011D928A95E9F7D801139648
S11312608C91139789836A8381E090E08D839E83B8
S11312704F83588729873A8716968C9116978B87C0
S113128040E0BF0111968D919C911297E0D2F80134
S11312908583882311F0E12CF12C8E2D9F2D2B9624
S11312A0CDBFDEBFDF91CF911F910F91FF90EF90E3
S11312B00895CF93DF93EB012DD38883DF91CF91F2
S11312C0089520C3089560E070E0CB01089521E003
S11312D030E0FC012083318386E090E208950F938F
S11312E01F93CF93DF931F921F92CDB7DEB78C016C
S11312F0CE010196ECDF69817A816115710501F1F6
S1131300FC01208931892023312320173107D9F0AA
S1131310AC014E5D5F4F20E030E00AC0FA014E5D43
S11313205F4F80899189802391238017910761F011
S11313302F5F3F4F2617370789F7E0E0F0E004C03E
S1131340E0E0F0E001C0FC018E2F9F2F0F900F9082
S1131350DF91CF911F910F9108951F93CF93DF9346
S1131360CDB7DEB72797CDBFDEBF69D874D040E8CC
S11313705AE166E070E080EB94E0A8DD182F20EAE3
S113138038E020931E2130931F2121E639E0209379
S11313901C2130931D2129E539E020931A21309333
S11313A01B2183E08D831E821F8240E052EC61E0AA
S11313B070E049835A836B837C8360E180D8BE01EB
S11313C06F5F7F4F80EA98E0B9D36CEF79E087E1F3
S11313D09AE00E946A164AEA51E164E070E04150E2
S11313E0510961097109D9F7812F2796CDBFDEBF55
S11313F0DF91CF911F910895CF93DF931F92CDB7C3
S1131400DEB780911E2190911F21E0911A21F09165
S11314101B21BE016F5F7F4F19958981282F3327C8
S113142027FD3095932F0F90DF91CF910895682F6A
S113143080911E2190911F21E0911C21F0911D218A
S1131440199599231CF42FEF3FEF02C021E030E0FF
S1131450822F932F089543E050E061E080E896E006
S11314603AD843E050E062E080E896E034D843E0C4
S113147050E064E080E896E02ED843E050E068E075
S113148080E896E028D843E050E060E180E896E008
S113149022D843E050E060E280E896E01CD843E0C4
S11314A050E060E480E896E016D843E050E060E85D
S11314B080E896E010D840E058E161E080E696E0EC
S11314C00AD840E058E162E080E696E004D840E0C3
S11314D058E164E080E696E00E946B0240E058E147
S11314E068E080E696E00E946B0240E058E160E12B
S11314F080E696E00E946B0240E058E160E280E6FC
S113150096E00E946B0240E058E161E080EE97E0D3
S11315100E946B0240E058E162E080EE97E00E9496
S11315206B0243E050E068E080E496E00E946B02C6
S113153040E050E064E080E496E00E946B0243E007
S113154050E068E080E696E00E946B0240E050E0E4
S113155064E080E696E00E946B020C940C021BBED1
S1131560FC0128ED24BF60830895CF93DF93E091BD
S11315700F21F0911021848183FF08C08860848347
S113158083E0838386EF8093192181C0982F94711F
S113159031F083E083838FEF8093192178C086FF35
S11315A040C0A0911121B0911221809113219091FA
S11315B0142114962D913C911597821793075CF48E
S11315C0A80FB91F11962C9127830196809313219C
S11315D0909314215CC08091152190911621189646
S11315E02D913C91199782179307B0F420911721FC
S11315F0222321F086818160868349C016960D904E
S1131600BC91A02DA80FB91F2C912783019680931C
S11316101521909316213BC083E0838310921921F6
S113162036C088238CF5A0911121B09112218091AC
S113163015219091162118962D913C911997821796
S11316409307E0F427811696CD91DC911797C80F84
S1131650D91F2883019680931521909316211896FB
S11316602D913C9119978217930718F482E0838394
S11316700EC087E083831092192109C083E083831D
S113168089EF8093192103C08BEF80931921DF9197
S1131690CF9108951F920F920FB60F92112408B69E
S11316A00F9218BE09B60F9219BE0BB60F921BBE4D
S11316B02F933F934F935F936F937F938F939F9356
S11316C0AF93BF93EF93FF9350DFFF91EF91BF91DF
S11316D0AF919F918F917F916F915F914F913F91C6
S11316E02F910F900BBE0F9009BE0F9008BE0F9064
S11316F00FBE0F901F9018951F920F920FB60F9266
S1131700112408B60F9218BE09B60F9219BE0BB673
S11317100F921BBE2F933F934F935F936F937F93CF
S11317208F939F93AF93BF93EF93FF931EDFFF912C
S1131730EF91BF91AF919F918F917F916F915F9145
S11317404F913F912F910F900BBE0F9009BE0F90B8
S113175008BE0F900FBE0F901F9018951F920F9206
S11317600FB60F92112408B60F9218BE09B60F9245
S113177019BE0BB60F921BBE2F933F934F935F93EB
S11317806F937F938F939F93AF93BF93EF93FF9345
S1131790ECDEFF91EF91BF91AF919F918F917F917B
S11317A06F915F914F913F912F910F900BBE0F90CE
S11317B009BE0F9008BE0F900FBE0F901F90189592
S11317C01F920F920FB60F92112408B60F9218BEF3
S11317D009B60F9219BE0BB60F921BBE2F933F93FF
S11317E04F935F936F937F938F939F93AF93BF9325
S11317F0EF93FF93BADEFF91EF91BF91AF919F9169
S11318008F917F916F915F914F913F912F910F90A5
S11318100BBE0F9009BE0F9008BE0F900FBE0F9025
S11318201F901895FC01DB0114968C91858388EB3D
S1131830818381E084831092182110921921E0EAB7
S1131840F0E0828182608283789480E0089500973A
S113185009F452C06115710509F450C0FB013285C9
S11318602091182102C031114BC02111FCCF2FB798
S1131870F89431E03093182130E8309319212FBFC8
S113188080930F2190931021609311217093122162
S113189010921321109214211092152110921621E6
S11318A040931721FB015081550F24813581232B4F
S11318B011F4411103C0FC01568303C05160FC01C3
S11318C05683E9E1F1E280818038E9F3E0910F2168
S11318D0F091102184818370813049F0AFE0B1E24E
S11318E0ED91FC911197848183708130C9F78091C7
S11318F0192110921821089588EF089588EF08950A
S113190086EF0895FC01818185FFFDCF608380E02F
S113191090E00895FC0181818823ECF7808108958B
S11319204F925F926F927F928F929F92AF92BF92EB
S1131930CF92DF92EF92FF920F931F93CF93DF9397
S1131940EC014A015B0128013901D901C8016894FD
S113195012F8B695A795979587951694D1F7B9017E
S1131960A801032E36E176956795579547953A95E4
S1131970D1F7302D2C8122FD08C0B695A7959795F7
S11319808795769567955795479588159905AA057E
S1131990BB0508F4AAC084169506A606B70608F483
S11319A0A6C08C8182FD04C0880C991CAA1CBB1C97
S11319B0C301B201A5019401F5D72F3F31054105BB
S11319C0510508F496C0C12CD12C7601CA9419EFA4
S11319D005C02C153D054E055F0568F0CC0CDD1CDB
S11319E0EE1CFF1C1D3F14F46894C0F81F5F1730F1
S11319F081F7212F52C0212F11230CF04EC0D501A5
S1131A00C401880F991FAA1FBB1F880F991FAA1F03
S1131A10BB1F880F991FAA1FBB1F481A590A6A0ABD
S1131A207B0A1E3FECF46DEF7FEF611B710917FD1C
S1131A30739504C0440C551C661C771C6A95D2F738
S1131A40D501C401B695A79597958795BC01CD019D
S1131A50640D751D861D971DA5019401A3D73CC077
S1131A60212F332727FD30952D5F3F4FD501C4012A
S1131A7004C0880F991FAA1FBB1F2A95D2F79C0187
S1131A80AD01B695A79597958795BC01CD01640DD9
S1131A90751D861D971D86D71FC0332727FD3095DA
S1131AA02D5F3F4FD501C40104C0880F991FAA1FA1
S1131AB0BB1F2A95D2F79C01AD01B695A7959795C2
S1131AC08795BC01CD01640D751D861D971D6AD7D0
S1131AD02150310941095109832F8F701295107FCC
S1131AE0182B1F832E8381E018C080E016C080E08D
S1131AF014C0D501C401880F991FAA1FBB1F880FEA
S1131B00991FAA1FBB1F880F991FAA1FBB1F481A22
S1131B10590A6A0A7B0A19EF86CFDF91CF911F9188
S1131B200F91FF90EF90DF90CF90BF90AF909F9078
S1131B308F907F906F905F904F9008950F931F93B5
S1131B40CF93DF93EC018B01009709F45DC1803CD6
S1131B50910529F460E180E00E945F0255C1C03420
S1131B6084E0D80729F468E080E00E945F024CC159
S1131B70C115E4E0DE0729F464E080E00E945F021E
S1131B8043C1C038F1E0DF0729F462E080E00E943D
S1131B905F023AC1C11581E0D80729F461E080E011
S1131BA00E945F0231C1C038E3E0DE0729F461E03E
S1131BB081E00E945F0228C1C039F3E0DF0729F405
S1131BC061E082E00E945F021FC1C11582E0D80774
S1131BD029F462E081E00E945F0216C1C034E2E0B1
S1131BE0DE0729F462E082E00E945F020DC1C115A4
S1131BF0F3E0DF0729F464E081E00E945F0204C19E
S1131C00C03283E0D80729F464E082E00E945F02D6
S1131C10FBC0C115E8E0DE0729F461E083E00E941F
S1131C205F02F2C0C115F9E0DF0729F461E084E046
S1131C300E945F02E9C0C1158AE0D80729F461E077
S1131C4085E00E945F02E0C0C115EBE0DE0729F4E5
S1131C5061E086E00E945F02D7C0C034F8E0DF078D
S1131C6029F462E083E00E945F02CEC0C03489E0C0
S1131C70D80729F462E084E00E945F02C5C0C03442
S1131C80EAE0DE0729F462E085E00E945F02BCC05E
S1131C90C034FBE0DF0729F462E086E00E945F02C3
S1131CA0B3C0C03988E0D80729F464E083E00E9417
S1131CB05F02AAC0C039E9E0DE0729F464E084E0E9
S1131CC00E945F02A1C0C039FAE0DF0729F464E092
S1131CD085E00E945F0298C0C0398BE0D80729F4E0
S1131CE064E086E00E945F028FC0C03CE8E0DE074B
S1131CF029F468E083E00E945F0286C0C03CF9E0FA
S1131D00DF0729F468E084E00E945F027DC0C03CE4
S1131D108AE0D80729F468E085E00E945F0274C075
S1131D20C03CEBE0DE0729F468E086E00E945F0235
S1131D306BC0C03AF8E0DF0729F460E183E00E9459
S1131D405F0262C0C03A89E0D80729F460E184E008
S1131D500E945F0259C0C03AEAE0DE0729F460E15C
S1131D6085E00E945F0250C0C03AFBE0DF0729F41F
S1131D7060E186E00E945F0247C0C03B88E0D8076C
S1131D8029F460E283E00E945F023EC0C03BE9E0C8
S1131D90DE0729F460E284E00E945F0235C0C03BA4
S1131DA0FAE0DF0729F460E285E00E945F022CC0BC
S1131DB0C03B8BE0D80729F460E286E00E945F0212
S1131DC023C0C038E4E0DE0729F460E483E00E9425
S1131DD05F021AC0C039F4E0DF0729F460E484E04C
S1131DE00E945F0211C0C03A84E0D80729F460E47D
S1131DF085E00E945F0208C0C03BE4E0DE0721F4F6
S1131E0060E486E00E945F028D818F738D83F80108
S1131E1094818581892B9681992311F098E001C0E2
S1131E2090E0892B8D83F801408151816281738117
S1131E3000E018E428EE31E0CE0172DD9C81986068
S1131E409C839C8190619C83DF91CF911F910F9122
S1131E500895CF93DF93CDB7DEB7E497CDBFDEBF50
S1131E607CDA20E030E040E050E062E070E0CE0157
S1131E7001960E94AB0688859985892B21F08FE70E
S1131E8090E2AFD7FFCF67E0CE0101960E94300702
S1131E9081E08E8F8FA7AE014C5C5F4FBE01605D09
S1131EA07F4FCE0101960E940207E981FA81878D56
S1131EB08F93868D8F938CA91F928F9389A98F936B
S1131EC088A98F93EB81FC81808D8F9387898F9371
S1131ED08DE990E29F938F9373D7CDBFDEBF0F2E12
S1131EE0F0E8EF2EF6E0FF2EF02D6894DD24D1F813
S1131EF000ED10E20F2EFAEA8F2EF0EB9F2EF8E29F
S1131F00AF2EB12CF02DF701D782AE01425F5F4FA7
S1131F1066E0CE0101960E94DE06AE01415E5F4F8F
S1131F2069E0CE0101960E94DE066F8D78A189A139
S1131F309AA1C7D020E030E040E251E41ED09F9344
S1131F408F937F936F936E857F8588899989B9D0A4
S1131F5020E030E048EC52E410D09F938F937F93BD
S1131F606F931F930F932CD7CDBFDEBFD501C40150
S1131F700197A109B109E1F7C6CF0CD042C13AD10A
S1131F8040F031D130F021F45F3F19F013C1511109
S1131F906CC116C147D198F39923C9F35523B1F302
S1131FA0951B550BBB27AA2762177307840738F0C4
S1131FB09F5F5F4F220F331F441FAA1FA9F333D023
S1131FC00E2E3AF0E0E830D091505040E695001CD7
S1131FD0CAF729D0FE2F27D0660F771F881FBB1F93
S1131FE0261737074807AB07B0E809F0BB0B802D6D
S1131FF0BF01FF2793585F4F2AF09E3F510568F0B9
S1132000D9C033C15F3FECF3983EDCF386957795F6
S11320106795B795F7959F5FC9F7880F911D9695BA
S1132020879597F90895E1E0660F771F881FBB1F16
S1132030621773078407BA0720F0621B730B840BC3
S1132040BA0BEE1F88F7E0950895BEE304D008F4B8
S113205090E80895BFE322273327A901EBD058F174
S11320609F5740F1B91738F1BFE3B91B9927B8500E
S11320703AF4660F771F881F991FB395D2F316C0E1
S1132080B8504AF0232F342F452F562F672F782F1F
S11320908827B850BAF7B85F49F086957795679561
S11320A05795479537952795BA95B9F70EF48BD080
S11320B088940895889460E070E0CB010895E894D2
S11320C009C097FB3EF490958095709561957F4F7C
S11320D08F4F9F4F9923A9F0F92F96E9BB2793952A
S11320E0F695879577956795B795F111F8CFFAF43A
S11320F0BB0F11F460FF1BC06F5F7F4F8F4F9F4F6B
S113210016C0882311F096E911C0772321F09EE8C8
S1132110872F762F05C0662371F096E8862F70E02E
S113212060E02AF09A95660F771F881FDAF7880F08
S11321309695879597F90895E894F92F96EBFF23E0
S113214081F0121613061406440B9395F6958795A1
S11321507795679557954040FF23B9F71BC099279A
S11321600895882351F49850D2F7872B762F652F42
S1132170542F432F322F20E0B1F312161306140606
S1132180440B88233AF09A95440F551F661F771F16
S1132190881FCAF755234AF4440F551F11F460FFF2
S11321A004C06F5F7F4F8F4F9F4F880F9695879521
S11321B097F9089597F99F6780E870E060E00895C3
S11321C09FEF80EC0895909580957095609550955B
S11321D04095309521953F4F4F4F5F4F6F4F7F4F45
S11321E08F4F9F4F089500240A9416161706180659
S11321F00906089500240A94121613061406050607
S11322000895092E0394000C11F4882352F0BB0F97
S113221040F4BF2B11F460FF04C06F5F7F4F8F4FFA
S11322209F4F089557FD9058440F551F59F05F3F35
S113223071F04795880F97FB991F61F09F3F79F0E4
S113224087950895121613061406551FF2CF469566
S1132250F1DF08C0161617061806991FF1CF8695E8
S11322607105610508940895E894BB2766277727CC
S1132270CB0197F908952F923F924F925F926F92FC
S11322807F928F929F92AF92BF92CF92DF92EF9202
S1132290FF920F931F93CF93DF93CDB7DEB762976F
S11322A0CDBFDEBF7C011B016A01FC0116821782CF
S11322B0838181FD03C04EC3650105C088248394D6
S11322C0912C8C0E9D1EF7019381F10193FD859154
S11322D093FF81911F01882309F438C3853239F4AF
S11322E093FD859193FF81911F01853229F4B701F4
S11322F090E03AD55601E0CF712C612C20E02032D9
S1132300A8F48B3261F028F4803251F0833271F4F6
S11323100BC08D3239F0803349F4216028C022602B
S1132320246025C0286023C0206121C027FD27C068
S1132330382F30533A3078F426FF06C0FAE07F9EF7
S1132340300D1124732E13C04AE0649E300D112405
S1132350632E20620CC08E3221F426FDF7C2206465
S113236006C08C3611F4206802C0883641F4F101AD
S113237093FD859193FF81911F018111C0CF982F07
S11323809554933018F42061805E06C0982F9556BA
S1132390933008F094C12F7E26FD02C016E0712E02
S11323A0BFE35B2E5222853619F4F0E45F2A07C09E
S11323B0863619F440E8542A02C071107A9457FE04
S11323C007C05BE3571548F0472C439427E00DC042
S11323D087E0871530F0272D07C027E0ACE34A2EAD
S11323E004C027E0F7E07F2E412C560194E0A90EAB
S11323F0B11CF6016081718182819381042DA40155
S11324007BD38C0149814C8740FF02C043FF07C046
S113241051FC08C052FE09C0E0E2DE2E07C07DE296
S1132420D72E04C06BE2D62E01C0D12C8C858C70C3
S113243089F1DD2011F084E001C083E0861510F0FD
S1132440612C0AC0681A53FC07C0B70180E290E00F
S11324508BD46A94D1F7F4CFDD2021F0B7018D2D10
S113246090E082D45C8553FD03C008EF11E00BC0FB
S113247004EF11E008C051108052B70190E074D409
S11324800F5F1F4F02C080E15822F801849181112F
S1132490F2CF59C257FE0EC0400E4C8544FF04C013
S11324A08A81813309F44A9414144CF558E0541584
S11324B048F12CC056FC2AC0872D90E08017910764
S11324C044F00C3F8FEF180724F090E8592A01C01C
S11324D07A94772049F0E2E0F0E0EC0FFD1FE70D7D
S11324E0F11D80818033A1F357FE10C0472C439423
S11324F0872D90E00817190744F4701A07C0442484
S1132500439404C058E0452E01C0712C57FE07C007
S1132510101611063CF498012F5F3F4F05C025E0CB
S113252030E002C021E030E0DD2011F02F5F3F4FAA
S1132530772031F0472D50E04F5F5F4F240F351F58
S1132540462D50E02417350714F4621A01C0612C9B
S1132550852D897041F405C0B70180E290E004D470
S11325606A946110F9CFDD2021F0B7018D2D90E040
S1132570FBD353FC08C005C0B70180E390E0F4D35B
S11325806A946110F9CF57FE54C0680117FF02C066
S1132590C12CD12C20E030E0A801441951094D8709
S11325A05E8728014C185D08480C591C872D90E063
S11325B044275527481B590B4F87588B5FEFC51687
S11325C0D50641F4B7018EE290E02A8B398BCCD347
S11325D039892A890C151D0554F04D855E854C15E5
S11325E05D052CF4F201E20FF31F818101C080E349
S11325F051E0C51AD1082F5F3F4F4F855889C41643
S1132600D50644F0B70190E02A8B398BADD32A89E3
S11326103989D4CFC016D10649F49A81963328F467
S1132620953321F45C8554FD01C081E3B70190E04A
S113263044C08A81813319F04C854F7E4C87B701A1
S113264090E092D3711005C054FE14C085E490E06C
S113265013C0B7018EE290E087D342E0D42EF40198
S1132660ED0DF11DD394B701808190E07DD37A9470
S1132670B1F7EACF85E690E0B70176D317FD06C03F
S11326800115110541F45C8554FF05C011950195B0
S113269011098DE201C08BE2B70190E065D380E3BC
S11326A003C08F5F0A5011090A301105D4F7B7012E
S11326B090E05AD3B701C801C09656D344C18336BB
S11326C031F0833781F0833509F05AC023C05601B5
S11326D082E0A80EB11CF60180818983CC24C394C6
S11326E0D12C840113C05601F2E0AF0EB11CF601E7
S11326F00081118126FF03C0672D70E002C06FEFD7
S11327007FEFC8012A8BDBD26C012A899FE7592EFF
S1132710522216C05601F2E0AF0EB11CF601008140
S1132720118126FF03C0672D70E002C06FEF7FEFB9
S1132730C8012A8BB9D26C012A8980E8582E522A02
S113274053FC1AC005C0B70180E290E00DD36A942F
S1132750862D90E0C816D906B0F30EC0F80157FCD8
S1132760859157FE81918F01B70190E0FDD26110F0
S11327706A94F1E0CF1AD108C114D10479F7E3C007
S1132780843611F0893649F5560127FF09C044E023
S1132790A40EB11CF60160817181828193810AC00B
S11327A0F2E0AF0EB11CF60160817181882777FDDC
S11327B08095982F122F1F7697FF08C090958095CB
S11327C0709561957F4F8F4F9F4F10682AE030E0DE
S11327D0A40136D3D82ED8183FC0122F853721F440
S11327E01F7E2AE030E01FC0197F8F36A1F020F44D
S11327F0883509F0ABC00BC0803721F0883709F069
S1132800A5C001C0106114FF09C0146007C024FFF3
S113281008C0166006C028E030E005C020E130E0C2
S113282002C020E132E0560117FF09C0F4E0AF0E08
S1132830B11CF601608171818281938108C0F2E04C
S1132840AF0EB11CF6016081718180E090E0A401BB
S1132850F7D2D82ED8181F7716FF0BC0212F2E7F42
S1132860D71450F414FF0AC012FD08C0212F2E7E85
S113287005C00D2D212F03C00D2D01C0072D24FFF0
S11328800CC0FE01ED0DF11D8081803311F4297E11
S113289008C022FF05C00E5F04C0822F867809F0AD
S11328A00F5F23FD13C020FF0EC07D2C061558F4C6
S11328B0760C701A062D07C0B70180E290E02A8BCF
S11328C053D20F5F2A890615B8F304C0061510F415
S11328D0601A01C0612C24FF11C0B70180E390E0AD
S11328E02A8B42D22A8922FF1CC021FF03C088E51B
S11328F090E002C088E790E0B7010CC0822F867890
S113290081F021FD02C080E201C08BE227FD8DE24F
S1132910B70190E029D205C0B70180E390E024D24A
S11329207A94D714C8F3DA94F401ED0DF11DB701CC
S1132930808190E019D2D110F6CF05C0B70180E2B2
S113294090E012D26A946110F9CFB6CCF7012681D7
S1132950378102C02FEF3FEFC9016296CDBFDEBFC2
S1132960DF91CF911F910F91FF90EF90DF90CF9067
S1132970BF90AF909F908F907F906F905F904F909B
S11329803F902F900895DB018F939F9354D0BF9174
S1132990AF91A29F800D911DA39F900DB29F900DAA
S11329A011240895A1E21A2EAA1BBB1BFD010DC020
S11329B0AA1FBB1FEE1FFF1FA217B307E407F507EB
S11329C020F0A21BB30BE40BF50B661F771F881FC7
S11329D0991F1A9469F760957095809590959B015D
S11329E0AC01BD01CF010895052E97FB16F40094A8
S11329F006D057FD0CD0D6DF07FC09D07EF49095A5
S1132A008095709561957F4F8F4F9F4F0895509596
S1132A104095309521953F4F4F4F5F4F0895A29FAA
S1132A20B001B39FC001A39F01D0B29F700D811D5F
S1132A301124911D0895F3DFA59F900DB49F900D6F
S1132A40A49F800D911D11240895B7FFF4CFF3DFE7
S1132A50821B930B0895DF93CF931F930F939A9D3B
S1132A60F02D219FF00D8B9DF00D8A9DE02DF10D31
S1132A70039FF00D029FE00DF11D4E9DE00DF11D31
S1132A805E9DF00D4F9DF00D7F936F93BF92AF92BB
S1132A905F934F93D501C3DF8B01AC01D701BFDF37
S1132AA0EB01E80FF91FD6011FD02F913F91D601FA
S1132AB0B6DFC60FD71FE81FF91FAF91BF9114D01F
S1132AC02F913F91ACDFC60FD71FE81FF91FD60126
S1132AD0A6DFE60FF71F9801BE01CF0111240F9165
S1132AE01F91CF91DF9108959ADF460F571FC81F9A
S1132AF0D91F08F431960895283008F027E03327C9
S1132B00DA01990F311D87FD916000966105710509
S1132B1039F432602E5F3D9330E32A95E1F708954E
S1132B209F3F30F080387105610509F03C5F3C5FE0
S1132B303D93913008F08068911DDF93CF931F93EC
S1132B400F93FF92EF92192F987F9695E92F969500
S1132B509695E90FFF27EA5AFD4F99273327EE246C
S1132B60FF24A701E70105900894079428F4360F81
S1132B70E71EF81E491F511D660F771F881F991FF6
S1132B800694A1F70590079428F4E70EF81E491F50
S1132B90561FC11D770F881F991F661F0694A1F742
S1132BA00590079428F4F80E491F561FC71FD11D1E
S1132BB0880F991F661F771F0694A1F70590079445
S1132BC020F4490F561FC71FD81F990F661F771F80
S1132BD0881F0694A9F784911095177041F0D69533
S1132BE0C79557954795F794E7941A95C1F7ECEF75
S1132BF0F1E0689415901591359165919591059042
S1132C007FE27395E118F10A430B560BC90BD00907
S1132C10C0F7E10CF11E431F561FC91FD01D7EF4DF
S1132C20703311F48A95E6CFE894015030F0080F20
S1132C300AF40027021708F4202F2395022F7A3371
S1132C4028F079E37D932A95E9F710C07D932A95BE
S1132C5089F6069497956795379517951794E11813
S1132C60F10A430B560BC90BD00998F023957E91BA
S1132C7073957A3308F070E37C932013B8F77E9150
S1132C8070617D9330F0839571E37D9370E32A95B1
S1132C90E1F71124EF90FF900F911F91CF91DF91F5
S1132CA0992787FD90950895FC0105906150704027
S1132CB00110D8F7809590958E0F9F1F0895FC0101
S1132CC06150704001900110D8F7809590958E0F57
S1132CD09F1F08950F931F93CF93DF93EC018B01F4
S1132CE0009731F46115710519F4E0E0F0E036C0A5
S1132CF06EE070E081E090E001D1FC010097A9F35F
S1132D0080E883830115110571F00287138781E838
S1132D1083838091202190912121892B21F4E093B8
S1132D202021F09321212097C9F0C087D187838186
S1132D30826083838091222190912321892B71F4D5
S1132D40E0932221F0932321809124219091252145
S1132D50892B21F4E0932421F0932521CF01DF91E5
S1132D60CF911F910F9108950F931F93CF93DF93EA
S1132D708C01EB018B8181FD03C00FEF1FEF1AC0A3
S1132D8082FF0DC02E813F818C819D8128173907D8
S1132D9064F4E881F9810193E883F98306C0E88546
S1132DA0F985802F1995892B41F78E819F81019692
S1132DB08E839F83C801DF91CF911F910F91089556
S1132DC0CF93DF93CDB7DEB7FE0136966191719153
S1132DD0AF0180912221909123214DDADF91CF918F
S1132DE008950F931F93CF93DF938C01E0912221D9
S1132DF0F0912321838181FF1BC0C0E0D0E005C096
S1132E001995892B11F0CFEFDFEFF80181918F0134
S1132E106091222170912321DB011896ED91FC91A0
S1132E2019978111EDCF8AE01995892B09F402C015
S1132E30CFEFDFEFCE01DF91CF911F910F91089576
S1132E40FA01AA27283051F1203181F1E8946F93D7
S1132E506E7F6E5F7F4F8F4F9F4FAF4FB1E03ED07D
S1132E60B4E03CD0670F781F891F9A1FA11D680F1B
S1132E70791F8A1F911DA11D6A0F711D811D911D4E
S1132E80A11D20D009F468943F912AE0269F1124C3
S1132E903019305D3193DEF6CF010895462F477027
S1132EA0405D4193B3E00FD0C9F7F6CF462F4F7082
S1132EB0405D4A3318F0495D31FD4052419302D0E0
S1132EC0A9F7EACFB4E0A695979587957795679586
S1132ED0BA95C9F700976105710508959B01AC0186
S1132EE00A2E06945795479537952795BA95C9F7AD
S1132EF0620F731F841F951FA01D08950F931F93C6
S1132F00CF93DF93689F8001699F100D789F100D08
S1132F101124C8010FD0C82FD92F209729F0A80158
S1132F2060E070E08C2F40D1CE01DF91CF911F91F2
S1132F300F9108950F931F93CF93DF9382309105E0
S1132F4010F482E090E0E0912821F091292120E022
S1132F5030E0C0E0D0E023C04081518148175907D8
S1132F60A8F04817590761F482819381209719F0DA
S1132F708A839B832EC0809328219093292129C082
S1132F802115310529F04217530710F0A90102C099
S1132F90BE01DF0102811381EF019A01F80130972C
S1132FA0D9F62115310509F1281B390B24303105D7
S1132FB090F412968D919C9113976115710521F0EF
S1132FC0FB018283938304C0809328219093292159
S1132FD0FD01329644C0FD01E20FF31F81939193EA
S1132FE0225031092D933C933AC0209126213091EF
S1132FF02721232B41F42091022030910320209398
S11330002621309327212091002030910120211581
S1133010310541F42DB73EB740910420509105206D
S1133020241B350BE0912621F0912721E217F307A9
S1133030A0F42E1B3F0B2817390778F0AC014E5F24
S11330405F4F2417350748F04E0F5F1F409326212A
S1133050509327218193919302C0E0E0F0E0CF01E7
S1133060DF91CF911F910F910895EF92FF920F93EB
S11330701F93CF93DF93009709F48FC0DC0112975D
S113308012961D921C921397E0902821F09029210A
S1133090E114F10489F42D913C911197280F391F03
S11330A080912621909127218217930789F5A09377
S11330B02621B093272171C0E70120E030E001C050
S11330C0EA01CA17DB0738F44A815B819E01411586
S11330D05105B1F722C0BC0162507109FB01C283E2
S11330E0D38300811181AC01400F511F4C175D0740
S11330F061F448815981400F511F4E5F5F4F4083F7
S113310051834A815B81428353832115310529F41C
S1133110A0932821B093292140C0F901A283B3834D
S1133120E90169917991C60FD71FAC17BD0779F4EE
S1133130DC015E914E91460F571F4E5F5F4F4083F7
S1133140518312968D919C91139782839383A0E06F
S1133150B0E002C0D7017C01F7018281938100971E
S1133160C9F7C701029620813181820F931F2091F4
S11331702621309127212817390779F4109729F44B
S1133180109228211092292104C012961D921C929B
S11331901397E0922621F0922721DF91CF911F917E
S11331A00F91FF90EF900895DC0101C06D934150A1
S10D31B05040E0F70895F894FFCFB3
S11331BA00002A21200001B00477000000002B003F
S11331CA00002A0000000200FF00FF00FF000000C8
S11331DA0000000000006506424D50303835204496
S11331EA69676974616C207072657373757265209E
S11331FA73656E736F7200424D50313830204469E2
S113320A676974616C207072657373757265207373
S113321A656E736F7200940393020000000000004D
S113322A1000040000000000000000050028200D22
S113323A53656E736F7220696E697469616C697A19
S113324A6174696F6E206572726F722E0025730D38
S113325A0A4944203D203078253032782076657238
S113326A2E203078253032780D0A202025642D62EC
S113327A6974205265736F6C7574696F6E0D0A00F8
S113328A50203D20252E3266206850612C2020547F
S10F329A203D20252E316620430D0A0043
S9030000FC
