S01F000053454E534F52535F50524F585F43414C494252415445312E7372656319
S2140000007AC100009EC100009CC100009AC1000099
S21400001098C1000096C1000094C1000092C1000083
S21400002090C100008EC100008CC100008AC1000093
S21400003088C100000C946E0F84C1000082C10000CD
S21400004080C100007EC100007CC100007AC10000B3
S21400005078C1000076C1000074C1000072C10000C3
S21400006070C100006EC100006CC100006AC10000D3
S21400007068C1000066C1000064C1000062C10000E3
S21400008060C100005EC100005CC100005AC10000F3
S21400009058C1000056C1000054C1000052C1000003
S2140000A050C100004EC100004CC100004AC1000013
S2140000B048C1000046C100000C94D20F42C10000A7
S2140000C040C100003EC100003CC100003AC1000033
S2140000D038C1000036C1000034C1000032C1000043
S2140000E030C100002EC100002CC100002AC1000053
S2140000F028C1000026C1000024C1000022C1000063
S21400010020C100001EC100001CC100001AC1000072
S21400011018C1000016C1000014C1000012C1000082
S21400012010C100000EC100000CC100000AC1000092
S2140001300C94A00F06C1000004C1000002C100001C
S21400014000C10000FEC00000FCC00000FAC00000B5
S214000150F8C00000F6C00000F4C00000F2C00000C6
S214000160F0C00000EEC00000ECC00000EAC00000D6
S214000170E8C00000E6C00000E4C00000E2C00000E6
S214000180E0C00000DEC00000DCC00000DAC00000F6
S214000190D8C00000D6C00000D4C00000D2C0000006
S2140001A0D1C00000CEC00000CCC000000C940410EB
S2140001B0C8C00000C6C00000C4C00000C2C0000026
S2140001C0C0C00000BEC00000BCC00000BAC0000036
S2140001D0B8C00000B6C00000B4C00000B2C0000046
S2140001E0B0C00000AEC00000ACC00000AAC0000056
S2140001F0A8C000006E616E00696E660000407A104E
S214000200F35A00A0724E18090010A5D4E80000E8C2
S2140002107648170000E40B54020000CA9A3B000020
S21400022000E1F505000080969800000040420F00AF
S2140002300000A08601000000102700000000E80370
S214000240000000006400000000000A00000000003B
S2140002500100000000002C76D888DC674F0823DFFA
S214000260C1DFAE59E1B1B796E5E3E453C63AE651CD
S214000270997696E8E6C28426EB898C9B62ED407CF4
S2140002806FFCEFBC9C9F40F2BAA56FA5F490055A90
S2140002902AF75C936B6CF9676DC11BFCE0E40D47B5
S2140002A0FEF520E6B500D0ED902E030094357705D8
S2140002B00080841E080000204E0A000000C80C3390
S2140002C03333330F986E12831141EF8D2114893B1F
S2140002D0E65516CFFEE6DB18D1844B381BF77C1D9F
S2140002E0901DA4BBE424203284725E228100C9F1F2
S2140002F024ECA1E53D2711241FBECFEFDFE3DEBFD0
S214000300CDBF00E00CBF18BE19BE1ABE1BBE12E25F
S214000310A0E0B0E2EEE0F7E300E00BBF02C007901B
S2140003200D92AC33B107D9F71BBE22E2ACE3B2E2C2
S21400033001C01D92AB36B207E1F70E947E130C9403
S214000340851B5ECE1F920F920FB60F92112408B631
S2140003500F9218BE09B60F9219BE0BB60F921BBEAF
S2140003602F933F934F935F936F937F938F939F93B8
S214000370AF93BF93EF93FF93E0913C22F0913D2221
S214000380309761F0A0EAB6E018968C9182FF06C01E
S21400039080913E2290913F22199523C0E091402201
S2140003A0F0914122309761F0A0EAB6E018968C9161
S2140003B083FF06C08091422290914322199511C076
S2140003C0E0914422F0914522309759F0A0EAB6E039
S2140003D018968C9184FF05C0809146229091472202
S2140003E0199581E0E0EAF6E08487FF91EF91BF91EE
S2140003F0AF919F918F917F916F915F914F913F91B8
S2140004002F910F900BBE0F9009BE0F9008BE0F9055
S2140004100FBE0F901F9018954115510509F460C046
S214000420AFB7F894F8946A32710581059105C9F45E
S21400043040933C2250933D2220933E2230933F220D
S214000440E0EAF6E081E081878285846082878FB764
S214000450F8949289987F928B9289928B8FBF81E0D5
S2140004603DC06B32710581059105C9F44093402269
S214000470509341222093422230934322E0EAF6E052
S21400048081E081878285886082878FB7F894938918
S214000490987F938B9389938B8FBF81E01FC06C32BC
S2140004A0710581059105C9F4409344225093452275
S2140004B02093462230934722E0EAF6E081E08187E7
S2140004C08285806182878FB7F8949489987F948B11
S2140004D09489948B8FBF81E001C080E0AFBF089500
S2140004E080E0089540E050E064E080EA96E053D073
S2140004F0F89487E0E0EAF0E08283789408958FEF3E
S21400050080937000809371008093720080937300D4
S21400051080937400809375008093760061E081E498
S21400052090E00E94030EE0E5F0E0818184FD19C0B2
S214000530818181FD09C08FB7F89490819260908385
S2140005408FBF818181FFFDCF8FB7F894E0E5F0E0A3
S21400055098E895839081906190838FBF818184FF16
S214000560FDCF64E080E490E00E94030E8FB7F8941D
S214000570E0E5F0E090819E7F90838FBF08959FB75F
S214000580F894E82FF0E0E059FF4F609580816823EB
S21400059060839FBF0895CF93DF93FC01709620E0A1
S2140005A030E0C62FD0E0DE01022E02C0B595A7953A
S2140005B00A94E2F7A0FD50832F5F3F4F3196283014
S2140005C0310589F740FF0AC041FF03C0FC0165837F
S2140005D002C0FC016683FC01618302C0FC016283E9
S2140005E0DF91CF9108950F931F93CF93DF93CDB7ED
S2140005F0DEB72797CDBFDEBF8C0181E0F80186838A
S21400060027E030E0AE014F5F5F4F6781C8010E9470
S214000610040CF801168285818111CAC00E94A80CBC
S21400062060931620709317208093182090931920BB
S21400063010920620109207202F8120764A81398159
S214000640203409F455C030F4222341F0203209F05A
S214000650AFC04EC0203609F0ABC04AC0942F80E031
S214000660832B2091492230914A2282179307E0F08B
S21400067020E030E12093062030930720A0E0B0E091
S21400068080930A2090930B20A0930C20B0930D200B
S2140006906091252070912620E0912320F09124205F
S2140006A086E090E2199584C020914B2230914C222E
S2140006B02817390708F47CC020E038E0209306208D
S2140006C030930720A0E0B0E080930A2090930B20A0
S2140006D0A0930C20B0930D206091212070912220D1
S2140006E0E0911F20F091202086E090E2199560C0EE
S2140006F080E091E08093062090930720203239F422
S21400070081E090E080930820909309200FC0203469
S21400071039F482E090E0809308209093092006C088
S21400072083E090E080930820909309202B8121FF9E
S21400073005C083E090E0A0E0B0E003C080E090E079
S214000740DC0180930A2090930B20A0930C20B0939A
S2140007500D2023FF05C083E090E0A0E0B0E003C0DA
S21400076080E090E0DC0180930E2090930F20A09311
S2140007701020B093112025FF05C083E090E0A0E094
S214000780B0E003C080E090E0DC01809312209093FC
S2140007901320A0931420B093152060911D20709113
S2140007A01E20E0911B20F0911C2086E090E2199517
S2140007B02796CDBFDEBFDF91CF911F910F91089591
S2140007C0EF92FF920F931F93CF93DF93CDB7DEB7D1
S2140007D02597CDBFDEBFFC017A018081918165300F
S2140007E031F0673001F1633009F095C076C022E041
S2140007F030E0AE014F5F5F4F6CE80E94040C3A8118
S21400080020E049818901042B222717FD2095322FED
S214000810F701008311832283338341E0029709F4B2
S2140008207FC040E07DC024E030E0AE014F5F5F4F08
S2140008306EE8EAD79C01F7018089882379F149811F
S21400084041FF05C083E090E0A0E0B0E003C080E098
S21400085090E0DC01F70180839183A283B38343FF9A
S21400086005C083E090E0A0E0B0E003C080E090E048
S214000870DC01F70184839583A683B78345FF05C013
S21400088083E090E0A0E0B0E003C080E090E0DC0110
S214000890F70180879187A287B38719C08A8190E085
S2140008A0A0E0B0E0F70180839183A283B3834B81FD
S2140008B050E060E070E044835583668377834C8124
S2140008C050E060E070E0408751876287738741E0C0
S2140008D02430310529F140E023C01D8221E030E0BC
S2140008E0AE014B5F5F4F6AE88FD78D81482F4295E8
S2140008F04F7050E060E070E0F70140835183628300
S21400090073838F7090E0A0E0B0E084839583A68325
S214000910B78341E005C080E092E88783908740E097
S214000920842F2596CDBFDEBFDF91CF911F910F910B
S214000930FF90EF900895AF92BF92CF92DF92EF9222
S214000940FF920F931F93CF93DF931F921F92CDB703
S214000950DEB77B016A01B22EFC010081118119828B
S21400096021E030E0AE014F5F5F4F62E9C8014CD72F
S2140009702981F0FE1AC0C114D10469F0F601808105
S2140009809181A281B38180931B2090931C20A09319
S2140009901D20B0931E20BB2021F02160AA24A39422
S2140009A005C02E7FAA24A39401C0A12CF3FE19C073
S2140009B0C114D10469F0F60180819181A281B381CE
S2140009C080931F2090932020A0932120B093222074
S2140009D0BB2021F02260AA24A39403C02D7FAA2462
S2140009E0A394F4FE19C0C114D10469F0F601408145
S2140009F05181628173814093232050932420609319
S214000A00252070932620BB2021F02260AA24A394E0
S214000A1003C02D7FAA24A3942A8321E030E0AE01F0
S214000A204E5F5F4F62E9C8012ED7198221E030E0A1
S214000A30AE014F5F5F4F62E9C801E6D68A2D0F9080
S214000A400F90DF91CF911F910F91FF90EF90DF9065
S214000A50CF90BF90AF900895EF92FF920F931F93A1
S214000A60CF93DF9300D01F92CDB7DEB78C01FC0189
S214000A70E080F180613031F080E290E087839087FB
S214000A8080E069C042305105B1F04330510511F1A4
S214000A904130510509F059C01C8221E030E0AE011A
S214000AA04C5F5F4F6FE88E2D9F2DAED68C81809366
S214000AB04D2281E050C01C8221E030E0AE014C5F48
S214000AC05F4F60E98E2D9F2D9FD68C8180934E229E
S214000AD081E041C01C8221E030E0AE014C5F5F4FF8
S214000AE061E98E2D9F2D90D68C8180934F2243E016
S214000AF050E06DE472E288E190E004D743E050E015
S214000B00BE016F5F7F4F88E190E00CD743E050E076
S214000B10BE016F5F7F4F8DE492E20E942B19282F53
S214000B20392F232B39F080E091E0F80187839087F6
S214000B3080E011C023E030E0AE014F5F5F4F63E915
S214000B408E2D9F2DA0D681E006C080E290E0F801B1
S214000B508783908780E02496CDBFDEBFDF91CF915C
S214000B601F910F91FF90EF900895CF92DF92EF9232
S214000B70FF920F931F93CF93DF93CDB7DEB72D97DA
S214000B80CDBFDEBFFC018A01D080C180663109F48A
S214000B9014C148F4603189F0643109F46FC16E30D5
S214000BA009F0F6C1CCC06A3109F447C06B3109F4CC
S214000BB04DC0673109F0ECC152C084819581DA01DD
S214000BC02C912130E1F02230B1F5809761F41D863A
S214000BD021E030E0AE01435F5F4F60E88D2D9C2D35
S214000BE052D661E0DEC11C8621E030E0AE01445FF3
S214000BF05F4F61E88D2D9C2D46D661E0D2C180976F
S214000C0069F483E08B8721E030E0AE01455F5F4FFB
S214000C1060E88D2D9C2D37D661E0C3C183E08A87BE
S214000C2021E030E0AE01465F5F4F61E88D2D9C2DE0
S214000C302AD661E0B6C160E0B4C1DA016D917C915C
S214000C4021E040E050E077DE682FABC1DA016D911D
S214000C507C9120E040E050E06EDE682FA2C18185E6
S214000C609285FA01318142813B832081293009F443
S214000C704DC02A3021F0283009F05DC032C08F3FC9
S214000C80FFEF9F0761F00CF458C09C01215031091A
S214000C902330310508F051C0815090E002C092E048
S214000CA080E0F82E890FE82EE394D80111969C91E7
S214000CB099876F2D6D5621E030E0AE01475F5F4F9C
S214000CC08D2D9C2DE0D58F2D90E041E050E0BE01AB
S214000CD06D5F7F4F489616D6F394FE10E6CF61E020
S214000CE060C139834A8330934B2240934C2222E0E2
S214000CF030E0AE014F5F5F4F68E98D2D9C2DC3D568
S214000D0061E0029709F44DC160E04BC139834A8324
S214000D103093492240934A2222E030E0AE014F5FF2
S214000D205F4F66E98D2D9C2DAED561E0029709F4E4
S214000D3038C160E036C160E034C160E032C1618530
S214000D407285FA018081893061F18A3019F0883025
S214000D5081F51EC06F3FFFEF7F0729F0CB0101979B
S214000D60039748F502C061E070E01B826E5621E0F2
S214000D7030E0AE014D5F5F4F8D2D9C2D45D58B81AC
S214000D80D80111968C93119712961C9261E009C1B6
S214000D9080914B2290914C22FA018183928361E0EC
S214000DA000C18091492290914A228183928361E01A
S214000DB0F8C060E0F6C060E0F4C0DA010D911C9166
S214000DC0E480F580E5FE2AC00115110551F0EEE835
S214000DD0F0E281E090E02081318102171307C1F430
S214000DE002C080E090E0FC01EE0FFF1F8E0F9F1FF9
S214000DF0FC01E557FF4D8281888721E030E0AE0197
S214000E00485F5F4F66E88D2D9C2D3DD561E007C09D
S214000E100196339685309105F1F6C0C060E0F0FE8D
S214000E20C0C00115110511F40BC060E0EDE9F0E259
S214000E3021E030E04081518104171507C1F402C05B
S214000E4020E030E0F901EE0FFF1F2E0F3F1FF901E3
S214000E50E656FF4D82818F8321E030E0AE01495F88
S214000E605F4F65E88D2D9C2D0ED561E09AC02F5FF3
S214000E703F4F33962A303105E9F693C0E184F28479
S214000E80FA01408151814530510551F0EBEBF0E21B
S214000E9021E030E0808191818417950789F402C0B3
S214000EA020E030E0F901EE0FFF1F2E0F3F1FF90183
S214000EB0E854FF4D1281FFEFEF16FF0689F508C0D4
S214000EC02F5F3F4F33962730310521F760E069C02A
S214000ED01B8221E030E0AE014D5F5F4F62E88D2D52
S214000EE09C2D92D48B81807C812B912F990F990F0A
S214000EF0990F892B8E8321E030E0AE014A5F5F4F69
S214000F0062E88D2D9C2DBFD41D8321E030E0AE011C
S214000F104B5F5F4F63E88D2D9C2DB5D461E041C0DB
S214000F20C7010197029710F51B8221E030E0AE0161
S214000F304D5F5F4F62E88D2D9C2D66D48B81EA94C1
S214000F40EF2819F4887F182B05C0110F110F110F09
S214000F50877C182B1C8321E030E0AE014C5F5F4F8E
S214000F6062E88D2D9C2D8FD461E01BC083E0E816CF
S214000F70F10461F41B8321E030E0AE014D5F5F4F6A
S214000F8063E88D2D9C2D7FD461E00BC060E009C026
S214000F9080E090E88783908760E003C0F0FC45CF50
S214000FA060E0862F2D96CDBFDEBFDF91CF911F91DB
S214000FB00F91FF90EF90DF90CF900895CF92DF9241
S214000FC0EF92FF920F931F93CF93DF93CDB7DEB7C9
S214000FD02B97CDBFDEBF7C01FC0100811181C02EA6
S214000FE0D12E1C8221E030E0AE014C5F5F4F6AE8F4
S214000FF0802F912F09D42C81243909F097C022E73D
S21400100030E2F7012283338320E130E0F801268FB7
S214001010378F8CE887838091482281110BC084E04B
S2140010208B8721E030E0AE01455F5F4F60E8802FA0
S214001030912F29D4F701848185FF16C083E08A8723
S21400104021E030E0AE01465F5F4F60E88C2D9D2DBD
S2140010501AD482E0898721E030E0AE01475F5F4F17
S21400106066E88C2D9D2D0FD4F7012481358130FF45
S2140010703FC00F2EF3E0FF2EF02DF88621E030E083
S214001080AE01485F5F4F61E88C2D9D2DFCD385E057
S2140010908F8321E030E0AE01495F5F4F65E88C2D1D
S2140010A09D2DF1D38BED8E8321E030E0AE014A5FBB
S2140010B05F4F62E88C2D9D2DE6D3FD8221E030E067
S2140010C0AE014B5F5F4F63E88C2D9D2DDCD343E074
S2140010D050E0BE016F5F7F4F88E190E023D423E0AD
S2140010E030E0AE014F5F5F4F63E98C2D9D2DCBD373
S2140010F080914822811116C01C8221E030E0AE01AA
S2140011004C5F5F4F62E98C2D9D2DBDD3F801858124
S214001110811108C06085718582859385980143EFAB
S21400112052E01AD481E08093482201C080E02B96DA
S214001130CDBFDEBFDF91CF911F910F91FF90EF9053
S214001140DF90CF9008950895CF92DF92EF92FF92AE
S2140011500F931F93CF93DF93EC018B016A01790104
S214001160CB0105D4888399830C831D83EB86FC868C
S214001170009779F0DC019096ED91FC919197B6017D
S214001180CE011995882329F081E08E831F82188668
S21400119005C080E092E08F83988780E0DF91CF9152
S2140011A01F910F91FF90EF90DF90CF9008951F93BF
S2140011B0CF93DF93EA01DC011296ED91FC91139731
S2140011C00190F081E02D309729F01995182F8111A4
S2140011D008C00CC020E032E8FC012783308710E00E
S2140011E005C0B6D36C877D878E879F87812FDF915A
S2140011F0CF911F910895DC011296ED91FC91139703
S2140012000680F781E02D309711F01995089520E0BB
S21400121032E8FC012783308780E008950F931F9300
S214001220CF93DF9300D0CDB7DEB78A016983DC01A8
S2140012301296ED91FC9113970280F381E02D309782
S21400124041F0AE014F5F5F4F6EE01995811108C007
S2140012500DC020E032E8FC012783308780E006C01E
S2140012608A819B81D8018D939C9381E02396CDBF84
S214001270DEBFDF91CF911F910F910895EF92FF92FD
S2140012800F931F93CF93DF931F921F92CDB7DEB7B6
S2140012908C016D3009F4C9C030F4693071F06A30E1
S2140012A009F0FCC066C0623109F46DC0663109F40D
S2140012B0C6C0613109F0F2C00AC0DC01ED91FC91B4
S2140012C0808D918DFA018083918381E0FCC0DA01E4
S2140012D0ED90FC90FC01A281B381A63FFFEFBF0713
S2140012E0E9F15196ED91FC9152973097C9F11D9610
S2140012F04D915C911E9741155105A1F18081918118
S214001300E816F906A1F407C0339680819181E816A5
S214001310F90679F402C020E030E029833A83129679
S214001320ED91FC911397309759F480E01CC020E0B3
S21400133030E02F5F3F4F2417350731F780E013C0AA
S214001340AE014F5F5F4F61E1C8011995882359F0E0
S214001350D801ED91FC91E08EF18EB5C080E003C01F
S21400136080E001C080E020E230E0F801278330878B
S214001370AAC0DC01ED91FC91828D938DFA018083E9
S214001380918381E0A0C0DA01ED90FC90FC01A2817F
S214001390B381A63FFFEFBF07E9F15396ED91FC91AD
S2140013A054973097C9F11F964D915C91509741150F
S2140013B05105A1F180819181E816F906A1F407C0D4
S2140013C0339680819181E816F90679F402C020E010
S2140013D030E029833A831296ED91FC91139730976B
S2140013E059F480E01CC020E030E02F5F3F4F241708
S2140013F0350731F780E013C0AE014F5F5F4F62E103
S214001400C8011995882359F0D801ED91FC91E28E18
S214001410F38E59C080E003C080E001C080E020E287
S21400142030E0F801278330874EC0DC01ED91FC9157
S214001430848D958DFA018083918381E044C0DA0122
S214001440ED90FC90DC011296ED91FC9113970280D2
S214001450F381E02D309729F066E11995811108C0D7
S2140014600EC080E092E8F8018783908780E02BC06A
S214001470D801ED91FC91E48EF58E81E024C0F80150
S2140014808781908581159248E9F080E290E0D80146
S21400149017968D939C93189780E015C0D8011296E6
S2140014A0ED91FC9113970280F381E02D309719F0AF
S2140014B0C801199508C080E092E8F80187839087F4
S2140014C080E001C080E00F900F90DF91CF911F91D8
S2140014D00F91FF90EF9008950F931F93CF93DF9394
S2140014E0CDB7DEB72997CDBFDEBF8C01FE013196A2
S2140014F089E0DF011D928A95E9F749835A836B8359
S2140015007C839A01AB01220F331F441F551F60E0F6
S21400151078E488EE91E00E942618DA01C901059762
S214001520A109B1098D839E83AF83B8870115110584
S21400153009F459C1003C110521F460E180E01FD890
S21400154052C10034B4E01B0721F468E080E017D8ED
S2140015504AC1011584E0180721F464E080E00FD842
S21400156042C10038A1E01A0721F462E080E007D803
S2140015703AC10115B1E01B0729F461E080E00E9442
S214001580BF0231C1003883E0180729F461E081E02A
S2140015900E94BF0228C10039A3E01A0729F461E0BF
S2140015A082E00E94BF021FC10115B2E01B0729F4AA
S2140015B062E081E00E94BF0216C1003482E0180794
S2140015C029F462E082E00E94BF020DC10115A3E08B
S2140015D01A0729F464E081E00E94BF0204C10032C9
S2140015E0B3E01B0729F464E082E00E94BF02FBC060
S2140015F0011588E0180729F461E083E00E94BF0225
S214001600F2C00115A9E01A0729F461E084E00E94FF
S214001610BF02E9C00115BAE01B0729F461E085E0C6
S2140016200E94BF02E0C001158BE0180729F461E0B4
S21400163086E00E94BF02D7C00034A8E01A0729F44B
S21400164062E083E00E94BF02CEC00034B9E01B0710
S21400165029F462E084E00E94BF02C5C000348AE03C
S214001660180729F462E085E00E94BF02BCC000347F
S214001670ABE01A0729F462E086E00E94BF02B3C01E
S2140016800039B8E01B0729F464E083E00E94BF023B
S214001690AAC0003989E0180729F464E084E00E94B3
S2140016A0BF02A1C00039AAE01A0729F464E085E069
S2140016B00E94BF0298C00039BBE01B0729F464E013
S2140016C086E00E94BF028FC0003C88E0180729F41D
S2140016D068E083E00E94BF0286C0003CA9E01A07CB
S2140016E029F468E084E00E94BF027DC0003CBAE0B6
S2140016F01B0729F468E085E00E94BF0274C0003C26
S2140017008BE0180729F468E086E00E94BF026BC0F1
S214001710003AA8E01A0729F460E183E00E94BF02BD
S21400172062C0003AB9E01B0729F460E184E00E9439
S214001730BF0259C0003A8AE0180729F460E185E044
S2140017400E94BF0250C0003AABE01A0729F460E1DD
S21400175086E00E94BF0247C0003BB8E01B0729F4A2
S21400176060E283E00E94BF023EC0003B89E01807AB
S21400177029F460E284E00E94BF0235C0003BAAE084
S2140017801A0729F460E285E00E94BF022CC0003BE5
S214001790BBE01B0729F460E286E00E94BF0223C07C
S2140017A0003884E0180729F460E483E00E94BF0252
S2140017B01AC00039A4E01A0729F460E484E00E9405
S2140017C0BF0211C0003AB4E01B0729F460E485E0CC
S2140017D00E94BF0208C0003B84E0180721F460E4C2
S2140017E086E00E94BF02BE016F5F7F4FC8013ED4F5
S2140017F091E0811190E0892F2996CDBFDEBFDF9161
S214001800CF911F910F910895EF92FF920F931F9320
S214001810CF93DF93CDB7DEB72B97CDBFDEBF8C015E
S2140018207901FE0131968BE0DF011D928A95E9F77A
S214001830D80113968C91139789836A8381E090E090
S2140018408D839E834F83588729873A8716968C9177
S21400185016978B8741E0BF0111968D919C91129748
S2140018601AD4F8018583882311F0E12CF12C8E2DF3
S2140018709F2D2B96CDBFDEBFDF91CF911F910F918D
S214001880FF90EF900895EF92FF920F931F93CF93E0
S214001890DF93CDB7DEB72B97CDBFDEBF8C017901C6
S2140018A0FE0131968BE0DF011D928A95E9F7D8019B
S2140018B013968C91139789836A8381E090E08D83D9
S2140018C09E834F83588729873A8716968C9116975A
S2140018D08B8740E0BF0111968D919C911297DBD3C8
S2140018E0F8018583882311F0E12CF12C8E2D9F2D95
S2140018F02B96CDBFDEBFDF91CF911F910F91FF904A
S214001900EF9008950F93DB019A01E0ECF1E0478534
S2140019104423ECF3BC0180E090E001E0AD019CD1F3
S2140019200F910895DB019A01E0ECF1E0478544232E
S214001930ECF3BC0180E090E0AD016BC1CF93DF9388
S214001940EB010CD48883DF91CF910895FFC30895EF
S21400195060E070E0CB0108950C940C02089521E03D
S21400196030E0FC012083318387E290E208950F93F4
S2140019701F93CF93DF931F921F92CDB7DEB78C01D4
S214001980CE010196ECDF69817A816115710501F15E
S214001990FC01208931892023312320173107D9F013
S2140019A0AC014E5D5F4F20E030E00AC0FA014E5DAC
S2140019B05F4F80899189802391238017910761F07A
S2140019C02F5F3F4F2617370789F7E0E0F0E004C0A7
S2140019D0E0E0F0E001C0FC018E2F9F2F0F900F90EB
S2140019E0DF91CF911F910F9108951F93CF93DF93AF
S2140019F0CDB7DEB72797CDBFDEBF0E947F0275D07A
S214001A0040E85AE166E070E080EB94E065DD182F70
S214001A1020EA38E020935F223093602226EA3CE0FA
S214001A2020935D2230935E222EE93CE020935B22D9
S214001A3030935C2283E08D831E821F8240E052EC4E
S214001A4061E070E049835A836B837C8360E10E9487
S214001A50BF02BE016F5F7F4F80EA98E093D466E4D2
S214001A607DE081E69DE00E9443194AEA51E164E088
S214001A7070E04150510961097109D9F7812F279605
S214001A80CDBFDEBFDF91CF911F910895CF93DF9337
S214001A901F92CDB7DEB780915F2290916022E091D1
S214001AA05B22F0915C22BE016F5F7F4F19958981A2
S214001AB0282F332727FD3095932F0F90DF91CF9156
S214001AC00895682F80915F2290916022E0915D22B8
S214001AD0F0915E22199599231CF42FEF3FEF02C078
S214001AE021E030E0822F932F089543E050E061E03C
S214001AF080E896E00E94CB0243E050E062E080E897
S214001B0096E00E94CB0243E050E064E080E896E076
S214001B100E94CB0243E050E068E080E896E00E9436
S214001B20CB0243E050E060E180E896E00E94CB0202
S214001B3043E050E060E280E896E00E94CB0243E09B
S214001B4050E060E480E896E00E94CB0243E050E07C
S214001B5060E880E896E00E94CB0240E058E161E051
S214001B6080E696E00E94CB0240E058E162E080E624
S214001B7096E00E94CB0240E058E164E080E696E002
S214001B800E94CB0240E058E168E080E696E00E94C2
S214001B90CB0240E058E160E180E696E00E94CB028E
S214001BA040E058E160E280E696E00E94CB0240E02A
S214001BB058E161E080EE97E00E94CB0240E058E1F9
S214001BC062E080EE97E00E94CB0243E050E068E0DF
S214001BD080E496E00E94CB0240E050E064E080E4BF
S214001BE096E00E94CB0243E050E068E080E696E094
S214001BF00E94CB0240E050E064E080E696E00E945F
S214001C00CB020C9472021BBEFC0128ED24BF60833D
S214001C100895EF92FF920F931F93CF93DF93E901FE
S214001C20DC01CB019170AA27BB27209771F08A01AF
S214001C307C01E41AF50AB8016E0D7F1D81E0AFD075
S214001C40F80181938F012197B1F7DF91CF911F9112
S214001C500F91FF90EF9008952F923F924F925F92D0
S214001C606F927F928F929F92AF92BF92CF92DF92A7
S214001C70EF92FF920F931F93CF93DF931F921F92C3
S214001C80CDB7DEB71A0169015B012115310509F0F0
S214001C9051C065C07201002379F0B20181E07FD0A7
S214001CA08983B2016F5F7F4F81E079D08A83898113
S214001CB09A81019621F404C089829A8201C011E0BB
S214001CC0C114D10409F1AE14BF0471F481E0C81A3E
S214001CD0D108EFEFAE1ABE0AF10181911F01898388
S214001CE0C114D10431F410C0C70101968A159B05B2
S214001CF059F4F1E0CF1AD108570122E0A20EB11C28
S214001D00F10181911F018A8349815A81C301B20181
S214001D100F940F00F2E04F0E511C611C711C411411
S214001D2022E052066104710409F0B4CFC114D10454
S214001D3029F408C010E088248A94982C412C512C51
S214001D403201A8CF112359F0E0ECF1E08785882313
S214001D50ECF348E160E070E0CB010F940000E0ECAB
S214001D60F1E087858823ECF34AE160E070E0CB0180
S214001D700F9400000F900F90DF91CF911F910F915D
S214001D80FF90EF90DF90CF90BF90AF909F908F9096
S214001D907F906F905F904F903F902F900895409166
S214001DA0CA01E62FF72F8093CA0184914093CA0197
S214001DB00895CF93DF93E0915022F09151228481D1
S214001DC083FF08C08860848383E0838386EF8093E4
S214001DD05A2281C0982F947131F083E083838FEF6D
S214001DE080935A2278C086FF40C0A0915222B091BC
S214001DF05322809154229091552214962D913C9115
S214001E001597821793075CF4A80FB91F11962C91AB
S214001E102783019680935422909355225CC080912C
S214001E2056229091572218962D913C911997821719
S214001E309307B0F420915822222321F086818160F6
S214001E40868349C016960D90BC91A02DA80FB91F89
S214001E502C912783019680935622909357223BC05D
S214001E6083E0838310925A2236C088238CF5A09193
S214001E705222B09153228091562290915722189662
S214001E802D913C91199782179307E0F427811696B7
S214001E90CD91DC911797C80FD91F288301968093A0
S214001EA056229093572218962D913C911997821797
S214001EB0930718F482E083830EC087E08383109232
S214001EC05A2209C083E0838389EF80935A2203C095
S214001ED08BEF80935A22DF91CF9108951F920F9235
S214001EE00FB60F92112408B60F9218BE09B60F92BD
S214001EF019BE0BB60F921BBE2F933F934F935F9363
S214001F006F937F938F939F93AF93BF93EF93FF93BC
S214001F1050DFFF91EF91BF91AF919F918F917F918D
S214001F206F915F914F913F912F910F900BBE0F9045
S214001F3009BE0F9008BE0F900FBE0F901F90189509
S214001F401F920F920FB60F92112408B60F9218BE6A
S214001F5009B60F9219BE0BB60F921BBE2F933F9376
S214001F604F935F936F937F938F939F93AF93BF939C
S214001F70EF93FF931EDFFF91EF91BF91AF919F917B
S214001F808F917F916F915F914F913F912F910F901D
S214001F900BBE0F9009BE0F9008BE0F900FBE0F909D
S214001FA01F9018951F920F920FB60F92112408B625
S214001FB00F9218BE09B60F9219BE0BB60F921BBE33
S214001FC02F933F934F935F936F937F938F939F933C
S214001FD0AF93BF93EF93FF93ECDEFF91EF91BF912A
S214001FE0AF919F918F917F916F915F914F913F91AC
S214001FF02F910F900BBE0F9009BE0F9008BE0F904A
S2140020000FBE0F901F9018951F920F920FB60F924B
S214002010112408B60F9218BE09B60F9219BE0BB659
S2140020200F921BBE2F933F934F935F936F937F93B5
S2140020308F939F93AF93BF93EF93FF93BADEFF9177
S214002040EF91BF91AF919F918F917F916F915F912B
S2140020504F913F912F910F900BBE0F9009BE0F909E
S21400206008BE0F900FBE0F901F901895FC01DB0165
S21400207014968C91858388EB818381E0848310920B
S214002080592210925A22E0EAF0E08281826082832E
S214002090789480E00895009709F452C061157105A0
S2140020A009F450C0FB0132852091592202C031113B
S2140020B04BC02111FCCF2FB7F89431E03093592252
S2140020C030E830935A222FBF8093502290935122AB
S2140020D060935222709353221092542210925522EB
S2140020E0109256221092572240935822FB0150819C
S2140020F0550F24813581232B11F4411103C0FC01B7
S214002100568303C05160FC015683EAE5F2E2808103
S2140021108038E9F3E0915022F09151228481837057
S214002120813049F0A0E5B2E2ED91FC9111978481EF
S21400213083708130C9F780915A22109259220895EF
S21400214088EF089588EF089586EF0895FC01818151
S21400215085FFFDCF608380E090E00895FC018181DB
S2140021608823ECF7808108954F925F926F927F925A
S2140021708F929F92AF92BF92CF92DF92EF92FF9292
S2140021800F931F93CF93DF93EC014A015B01280165
S2140021903901D901C801689412F8B695A7959795A4
S2140021A087951694D1F7B901A801032E36E17695E6
S2140021B06795579547953A95D1F7302D2C8122FD96
S2140021C008C0B695A7959795879576956795579580
S2140021D0479588159905AA05BB0508F4AAC0841674
S2140021E09506A606B70608F4A6C08C8182FD04C034
S2140021F0880C991CAA1CBB1CC301B201A501940142
S21400220025D72F3F31054105510508F496C0C12C4E
S214002210D12C7601CA9419EF05C02C153D054E0544
S2140022205F0568F0CC0CDD1CEE1CFF1C1D3F14F493
S2140022306894C0F81F5F173081F7212F52C0212FF6
S21400224011230CF04EC0D501C401880F991FAA1F98
S214002250BB1F880F991FAA1FBB1F880F991FAA1F95
S214002260BB1F481A590A6A0A7B0A1E3FECF46DEF38
S2140022707FEF611B710917FD739504C0440C551C54
S214002280661C771C6A95D2F7D501C401B695A7954A
S21400229097958795BC01CD01640D751D861D971D0C
S2140022A0A5019401D3D63CC0212F332727FD3095B6
S2140022B02D5F3F4FD501C40104C0880F991FAA1F88
S2140022C0BB1F2A95D2F79C01AD01B695A7959795A9
S2140022D08795BC01CD01640D751D861D971DB6D66C
S2140022E01FC0332727FD30952D5F3F4FD501C40112
S2140022F004C0880F991FAA1FBB1F2A95D2F79C01FE
S214002300AD01B695A79597958795BC01CD01640D4F
S214002310751D861D971D9AD6215031094109510910
S214002320832F8F701295107F182B1F832E8381E0CA
S21400233018C080E016C080E014C0D501C401880F24
S214002340991FAA1FBB1F880F991FAA1FBB1F880FA4
S214002350991FAA1FBB1F481A590A6A0A7B0A19EF57
S21400236086CFDF91CF911F910F91FF90EF90DF9076
S214002370CF90BF90AF909F908F907F906F905F9020
S2140023804F9008950F931F93CF93DF93EC018B012B
S214002390009709F45DC1803C910529F460E180E076
S2140023A00E94BF0255C1C03484E0D80729F468E013
S2140023B080E00E94BF024CC1C115E4E0DE0729F4AC
S2140023C064E080E00E94BF0243C1C038F1E0DF074E
S2140023D029F462E080E00E94BF023AC1C11581E0A4
S2140023E0D80729F461E080E00E94BF0231C1C038FE
S2140023F0E3E0DE0729F461E081E00E94BF0228C125
S214002400C039F3E0DF0729F461E082E00E94BF02F2
S2140024101FC1C11582E0D80729F462E081E00E945E
S214002420BF0216C1C034E2E0DE0729F462E082E0B3
S2140024300E94BF020DC1C115F3E0DF0729F464E076
S21400244081E00E94BF0204C1C03283E0D80729F4AD
S21400245064E082E00E94BF02FBC0C115E8E0DE0730
S21400246029F461E083E00E94BF02F2C0C115F9E0E2
S214002470DF0729F461E084E00E94BF02E9C0C115CD
S2140024808AE0D80729F461E085E00E94BF02E0C038
S214002490C115EBE0DE0729F461E086E00E94BF028A
S2140024A0D7C0C034F8E0DF0729F462E083E00E947A
S2140024B0BF02CEC0C03489E0D80729F462E084E0C9
S2140024C00E94BF02C5C0C034EAE0DE0729F462E01D
S2140024D085E00E94BF02BCC0C034FBE0DF0729F4E1
S2140024E062E086E00E94BF02B3C0C03988E0D80729
S2140024F029F464E083E00E94BF02AAC0C039E9E084
S214002500DE0729F464E084E00E94BF02A1C0C0395F
S214002510FAE0DF0729F464E085E00E94BF0298C075
S214002520C0398BE0D80729F464E086E00E94BF0239
S2140025308FC0C03CE8E0DE0729F468E083E00E9434
S214002540BF0286C0C03CF9E0DF0729F468E084E0FB
S2140025500E94BF027DC0C03C8AE0D80729F468E02C
S21400256085E00E94BF0274C0C03CEBE0DE0729F4A1
S21400257068E086E00E94BF026BC0C03AF8E0DF0762
S21400258029F460E183E00E94BF0262C0C03A89E09D
S214002590D80729F460E184E00E94BF0259C0C03A1F
S2140025A0EAE0DE0729F460E185E00E94BF0250C041
S2140025B0C03AFBE0DF0729F460E186E00E94BF0234
S2140025C047C0C03B88E0D80729F460E283E00E9459
S2140025D0BF023EC0C03BE9E0DE0729F460E284E0CB
S2140025E00E94BF0235C0C03BFAE0DF0729F460E274
S2140025F085E00E94BF022CC0C03B8BE0D80729F4C0
S21400260060E286E00E94BF0223C0C038E4E0DE0736
S21400261029F460E483E00E94BF021AC0C039F4E0E7
S214002620DF0729F460E484E00E94BF0211C0C03ACC
S21400263084E0D80729F460E485E00E94BF0208C061
S214002640C03BE4E0DE0721F460E486E00E94BF02BF
S2140026508D818F738D83F80194818581892B968176
S214002660992311F098E001C090E0892B8D83F80142
S214002670408151816281738100E018E428EE31E0E8
S214002680CE0172DD9C8198609C839C8190619C83C6
S214002690DF91CF911F910F910895CF93DF939F9372
S2140026A08F9382E092E29F938F9363D688E0E0E870
S2140026B0F6E085830F900F900F900F90E0E6F6E01F
S2140026C0C0E8D6E021E045E553E268E070E007C0E8
S2140026D02F83DB01CA010197A109B109E1F78085C3
S2140026E080FDF6CF81E0E0E8F6E08583E0E6F6E000
S2140026F0808580FFFDCFDF91CF910895CF93DF9344
S214002700CDB7DEB7A297CDBFDEBF6FD988E0E0E8D1
S214002710F6E086838DEC90E2C0DF20E030E040E01B
S21400272050E060E071E0CE0101960E94A4088FEFB1
S2140027309FEF8A879B8786E990E089A39AA3AE01DC
S2140027404F5D5F4F64E1CE0101960E943E0981E035
S2140027508E8F83EE90E29F938F930BD687EF90E257
S2140027609CDF20E030E041E050E061E0CE010196E1
S2140027700E94FB0889E291E29F938F93FAD587EF38
S21400278090E28BDF20E030E042E050E061E0CE01F6
S21400279001960E94FB088DE391E29F938F93E9D503
S2140027A087EF90E27ADF20E030E043E050E061E03F
S2140027B0CE0101960E94FB080F900F900F900F908D
S2140027C00F900F90811115C08885998581159140CD
S2140027D041F481E591E29F938F93CBD50F900F90B4
S2140027E007C084E791E29F938F93C3D50F900F9015
S2140027F0FFCF81E090E08A879B87AE01415E5F4F06
S2140028006AE0CE0101960E940E0988A18F938F8DF3
S2140028108F938DE991E29F938F93ABD582E090E002
S2140028208A879B87AE01415E5F4F6AE0CE010196C4
S2140028300E940E0988A18F938F8D8F9388EB91E26B
S2140028409F938F9396D583E090E08A879B87AE010F
S214002850415E5F4F6AE0CE0101960E940E0988A194
S2140028608F938F8D8F9383ED91E29F938F9381D576
S214002870CDBFDEBFC12CD12CEE24E394F12C0EEE9E
S21400288011E20F2EFAEA8F2EF0EB9F2EF8E2AF2E13
S214002890B12CF02DF601EE0FFF1FEE0FFF1FED5DC2
S2140028A0FD4D80819FEFC91AD90AE82FE695E69577
S2140028B0E69520E2E29FF0011124FA5F8770970107
S2140028C002C0220F331F8A95E2F7278334E0C3162F
S2140028D0D10414F0C12CD12CAE01425F5F4F67E0EB
S2140028E0CE0101960E94D708EE89FF89EE0FFF1FE2
S2140028F0ED5CFD4D81818F9380818F93EA89FB8902
S214002900EE0FFF1FED5CFD4D81818F9380818F93CD
S214002910EE85FF85EE0FFF1FED5CFD4D81818F93E9
S21400292080818F931F930F9324D5CDBFDEBFD50133
S214002930C4010197A109B109E1F7ACCF2F923F92EC
S2140029404F925F926F927F928F929F92AF92BF92BA
S214002950CF92DF92EF92FF920F931F93CF93DF9366
S214002960CDB7DEB76297CDBFDEBF7C011B016A0123
S214002970FC0116821782838181FD03C04EC3650168
S21400298005C088248394912C8C0E9D1EF70193819C
S214002990F10193FD859193FF81911F01882309F42E
S2140029A038C3853239F493FD859193FF81911F01D9
S2140029B0853229F4B70190E0B0D45601E0CF712CEF
S2140029C0612C20E02032A8F48B3261F028F48032AB
S2140029D051F0833271F40BC08D3239F0803349F4F4
S2140029E0216028C02260246025C0286023C02061A2
S2140029F021C027FD27C0382F30533A3078F426FF01
S214002A0006C0FAE07F9E300D1124732E13C04AE0F4
S214002A10649E300D1124632E20620CC08E3221F489
S214002A2026FDF7C2206406C08C3611F4206802C06A
S214002A30883641F4F10193FD859193FF81911F0142
S214002A408111C0CF982F9554933018F42061805E82
S214002A5006C0982F9556933008F094C12F7E26FD19
S214002A6002C016E0712EBFE35B2E5222853619F4A3
S214002A70F0E45F2A07C0863619F440E8542A02C0FC
S214002A8071107A9457FE07C05BE3571548F0472C41
S214002A90439427E00DC087E0871530F0272D07C048
S214002AA027E0ACE34A2E04C027E0F7E07F2E412C57
S214002AB0560194E0A90EB11CF601608171818281F5
S214002AC09381042DA401E4D28C0149814C8740FFF8
S214002AD002C043FF07C051FC08C052FE09C0E0E236
S214002AE0DE2E07C07DE2D72E04C06BE2D62E01C0D4
S214002AF0D12C8C858C7089F1DD2011F084E001C02A
S214002B0083E0861510F0612C0AC0681A53FC07C0D3
S214002B10B70180E290E001D46A94D1F7F4CFDD20CB
S214002B2021F0B7018D2D90E0F8D35C8553FD03C0EE
S214002B3008EF11E00BC004EF11E008C051108052FE
S214002B40B70190E0EAD30F5F1F4F02C080E1582222
S214002B50F80184918111F2CF59C257FE0EC0400E83
S214002B604C8544FF04C08A81813309F44A941414C6
S214002B704CF558E0541548F12CC056FC2AC0872D59
S214002B8090E08017910744F00C3F8FEF180724F071
S214002B9090E8592A01C07A94772049F0E2E0F0E004
S214002BA0EC0FFD1FE70DF11D80818033A1F357FE6A
S214002BB010C0472C4394872D90E00817190744F45B
S214002BC0701A07C04424439404C058E0452E01C040
S214002BD0712C57FE07C0101611063CF498012F5FA3
S214002BE03F4F05C025E030E002C021E030E0DD20A8
S214002BF011F02F5F3F4F772031F0472D50E04F5FA9
S214002C005F4F240F351F462D50E02417350714F468
S214002C10621A01C0612C852D897041F405C0B70188
S214002C2080E290E07AD36A946110F9CFDD2021F03B
S214002C30B7018D2D90E071D353FC08C005C0B701D5
S214002C4080E390E06AD36A946110F9CF57FE54C0CF
S214002C50680117FF02C0C12CD12C20E030E0A8018B
S214002C60441951094D875E8728014C185D08480CA9
S214002C70591C872D90E044275527481B590B4F8732
S214002C80588B5FEFC516D50641F4B7018EE290E08B
S214002C902A8B398B42D339892A890C151D0554F0A5
S214002CA04D855E854C155D052CF4F201E20FF31F91
S214002CB0818101C080E351E0C51AD1082F5F3F4FE4
S214002CC04F855889C416D50644F0B70190E02A8B84
S214002CD0398B23D32A893989D4CFC016D10649F433
S214002CE09A81963328F4953321F45C8554FD01C00F
S214002CF081E3B70190E044C08A81813319F04C85A6
S214002D004F7E4C87B70190E008D3711005C054FE83
S214002D1014C085E490E013C0B7018EE290E0FDD2C7
S214002D2042E0D42EF401ED0DF11DD394B70180815D
S214002D3090E0F3D27A94B1F7EACF85E690E0B70157
S214002D40ECD217FD06C00115110541F45C8554FF51
S214002D5005C01195019511098DE201C08BE2B701FE
S214002D6090E0DBD280E303C08F5F0A5011090A307F
S214002D701105D4F7B70190E0D0D2B701C801C096CC
S214002D80CCD244C1833631F0833781F0833509F0E5
S214002D905AC023C0560182E0A80EB11CF6018081FD
S214002DA08983CC24C394D12C840113C05601F2E04D
S214002DB0AF0EB11CF6010081118126FF03C0672DFE
S214002DC070E002C06FEF7FEFC8012A8B51D26C0112
S214002DD02A899FE7592E522216C05601F2E0AF0EFE
S214002DE0B11CF6010081118126FF03C0672D70E03B
S214002DF002C06FEF7FEFC8012A8B22D26C012A89AE
S214002E0080E8582E522A53FC1AC005C0B70180E24B
S214002E1090E083D26A94862D90E0C816D906B0F367
S214002E200EC0F80157FC859157FE81918F01B701BE
S214002E3090E073D261106A94F1E0CF1AD108C11401
S214002E40D10479F7E3C0843611F0893649F5560186
S214002E5027FF09C044E0A40EB11CF6016081718111
S214002E60828193810AC0F2E0AF0EB11CF601608148
S214002E707181882777FD8095982F122F1F7697FFF0
S214002E8008C090958095709561957F4F8F4F9F4FA6
S214002E9010682AE030E0A4017DD2D82ED8183FC0B2
S214002EA0122F853721F41F7E2AE030E01FC0197FDD
S214002EB08F36A1F020F4883509F0ABC00BC0803700
S214002EC021F0883709F0A5C001C0106114FF09C0C1
S214002ED0146007C024FF08C0166006C028E030E073
S214002EE005C020E130E002C020E132E0560117FFC5
S214002EF009C0F4E0AF0EB11CF601608171818281D9
S214002F00938108C0F2E0AF0EB11CF60160817181BA
S214002F1080E090E0A4013ED2D82ED8181F7716FF86
S214002F200BC0212F2E7FD71450F414FF0AC012FDB9
S214002F3008C0212F2E7E05C00D2D212F03C00D2D7C
S214002F4001C0072D24FF0CC0FE01ED0DF11D808190
S214002F50803311F4297E08C022FF05C00E5F04C02E
S214002F60822F867809F00F5F23FD13C020FF0EC066
S214002F707D2C061558F4760C701A062D07C0B7017E
S214002F8080E290E02A8BC9D10F5F2A890615B8F334
S214002F9004C0061510F4601A01C0612C24FF11C08D
S214002FA0B70180E390E02A8BB8D12A8922FF1CC0A3
S214002FB021FF03C088E590E002C088E790E0B701F3
S214002FC00CC0822F867881F021FD02C080E201C00D
S214002FD08BE227FD8DE2B70190E09FD105C0B701D7
S214002FE080E390E09AD17A94D714C8F3DA94F40187
S214002FF0ED0DF11DB701808190E08FD1D110F6CF95
S21400300005C0B70180E290E088D16A946110F9CFDC
S214003010B6CCF7012681378102C02FEF3FEFC901FA
S2140030206296CDBFDEBFDF91CF911F910F91FF90CB
S214003030EF90DF90CF90BF90AF909F908F907F9053
S2140030406F905F904F903F902F900895A1E21A2EB8
S214003050AA1BBB1BFD010DC0AA1FBB1FEE1FFF1F37
S214003060A217B307E407F50720F0A21BB30BE40B87
S214003070F50B661F771F881F991F1A9469F76095CE
S2140030807095809590959B01AC01BD01CF01089588
S214003090283008F027E03327DA01990F311D87FD25
S2140030A0916000966105710539F432602E5F3D939C
S2140030B030E32A95E1F708959F3F30F08038710598
S2140030C0610509F03C5F3C5F3D93913008F08068F5
S2140030D0911DDF93CF931F930F93FF92EF92192FBB
S2140030E0987F9695E92F96959695E90FFF27EA5AC9
S2140030F0FD4F99273327EE24FF24A701E70105900B
S2140031000894079428F4360FE71EF81E491F511D31
S214003110660F771F881F991F0694A1F705900794DE
S21400312028F4E70EF81E491F561FC11D770F881F8B
S214003130991F661F0694A1F70590079428F4F80EC9
S214003140491F561FC71FD11D880F991F661F771F5F
S2140031500694A1F70590079420F4490F561FC71F41
S214003160D81F990F661F771F881F0694A9F78491AA
S2140031701095177041F0D695C79557954795F794D3
S214003180E7941A95C1F7ECEFF1E068941590159165
S21400319035916591959105907FE27395E118F10A56
S2140031A0430B560BC90BD009C0F7E10CF11E431FA9
S2140031B0561FC91FD01D7EF4703311F48A95E6CFD2
S2140031C0E894015030F0080F0AF40027021708F4BC
S2140031D0202F2395022F7A3328F079E37D932A95C2
S2140031E0E9F710C07D932A9589F60694979567951A
S2140031F0379517951794E118F10A430B560BC90B30
S214003200D00998F023957E9173957A3308F070E391
S2140032107C932013B8F77E9170617D9330F0839590
S21400322071E37D9370E32A95E1F71124EF90FF9008
S2140032300F911F91CF91DF91992787FD9095089563
S214003240FC010590615070400110D8F7809590956C
S2140032508E0F9F1F0895FB01DC0104C08D91019025
S214003260801921F441505040C8F7881B990B0895E7
S214003270FC016150704001900110D8F78095909540
S2140032808E0F9F1F08950F931F93CF93DF93EC012C
S2140032908B01009731F46115710519F4E0E0F0E058
S2140032A036C06EE070E081E090E0D2D0FC0100977E
S2140032B0A9F380E883830115110571F0028713874F
S2140032C081E883838091612290916222892B21F488
S2140032D0E0936122F09362222097C9F0C087D187DD
S2140032E08381826083838091632290916422892BFC
S2140032F071F4E0936322F0936422809165229091AA
S2140033006622892B21F4E0936522F0936622CF0192
S214003310DF91CF911F910F9108950F931F93CF9335
S214003320DF938C01EB018B8181FD03C00FEF1FEF54
S2140033301AC082FF0DC02E813F818C819D81281787
S214003340390764F4E881F9810193E883F98306C0BC
S214003350E885F985802F1995892B41F78E819F8105
S21400336001968E839F83C801DF91CF911F910F91A5
S2140033700895CF93DF93CDB7DEB7FE013696619101
S2140033807191AF018091632290916422D7DADF9128
S214003390CF910895FA01AA27283051F1203181F102
S2140033A0E8946F936E7F6E5F7F4F8F4F9F4FAF4F48
S2140033B0B1E03ED0B4E03CD0670F781F891F9A1F5B
S2140033C0A11D680F791F8A1F911DA11D6A0F711D0F
S2140033D0811D911DA11D20D009F468943F912AE01B
S2140033E0269F11243019305D3193DEF6CF01089503
S2140033F0462F4770405D4193B3E00FD0C9F7F6CF34
S214003400462F4F70405D4A3318F0495D31FD4052FB
S214003410419302D0A9F7EACFB4E0A6959795879591
S21400342077956795BA95C9F7009761057105089570
S2140034309B01AC010A2E069457954795379527951C
S214003440BA95C9F7620F731F841F951FA01D0895B4
S2140034500F931F93CF93DF93689F8001699F100D92
S214003460789F100D1124C8010FD0C82FD92F209790
S21400347029F0A80160E070E08C2F40D1CE01DF91EA
S214003480CF911F910F9108950F931F93CF93DF93C2
S2140034908230910510F482E090E0E0916922F0918C
S2140034A06A2220E030E0C0E0D0E023C040815181B5
S2140034B048175907A8F04817590761F48281938185
S2140034C0209719F08A839B832EC08093692290935D
S2140034D06A2229C02115310529F04217530710F03A
S2140034E0A90102C0BE01DF0102811381EF019A012A
S2140034F0F8013097D9F62115310509F1281B390B4B
S2140035002430310590F412968D919C911397611595
S214003510710521F0FB018283938304C080936922A6
S21400352090936A22FD01329644C0FD01E20FF31F1C
S21400353081939193225031092D933C933AC0209168
S214003540672230916822232B41F42091022030918B
S2140035500320209367223093682220910020309128
S21400356001202115310541F42DB73EB740910420C6
S21400357050910520241B350BE0916722F0916822BC
S214003580E217F307A0F42E1B3F0B2817390778F035
S214003590AC014E5F5F4F2417350748F04E0F5F1F94
S2140035A040936722509368228193919302C0E0E093
S2140035B0F0E0CF01DF91CF911F910F910895EF9228
S2140035C0FF920F931F93CF93DF93009709F48FC05A
S2140035D0DC01129712961D921C921397E0906922B6
S2140035E0F0906A22E114F10489F42D913C91119730
S2140035F0280F391F809167229091682282179307BF
S21400360089F5A0936722B093682271C0E70120E095
S21400361030E001C0EA01CA17DB0738F44A815B8153
S2140036209E0141155105B1F722C0BC0162507109D7
S214003630FB01C283D38300811181AC01400F511F6F
S2140036404C175D0761F448815981400F511F4E5F4A
S2140036505F4F408351834A815B81428353832115A8
S214003660310529F4A0936922B0936A2240C0F9017B
S214003670A283B383E90169917991C60FD71FAC176E
S214003680BD0779F4DC015E914E91460F571F4E5FE1
S2140036905F4F4083518312968D919C91139782833E
S2140036A09383A0E0B0E002C0D7017C01F7018281DD
S2140036B093810097C9F7C701029620813181820F56
S2140036C0931F20916722309168222817390779F4D2
S2140036D0109729F41092692210926A2204C012965A
S2140036E01D921C921397E0926722F0926822DF9157
S2140036F0CF911F910F91FF90EF900895DC0101C0CC
S2120037006D9341505040E0F70895F894FFCFC7
S21400370E00006B22200000000000000000000000F9
S21400371E0000000000000000000001A3080000A347
S21400372E080000A308000001B00438000000002ABC
S21400373E000000FFFF00002001FF00FF00FF00005A
S21400374E00000000000000DE0753464837373730CB
S21400375E20416D6269656E74204C69676874202618
S21400376E2050726F78696D6974792053656E736F29
S21400377E7200E003B5059B042C050000000009004E
S21400378E00000000000000030049200000040100B5
S21400379E030200020500010A0000000009010008ED
S2140037AE0200070500060A00050E00041400032199
S2140037BE00023200016400000500000A0001140039
S2140037CE02320003640004960005C80006507265B7
S2140037DE737320627574746F6E20746F20737461C9
S2140037EE72740053657474696E67206368616E6EDA
S2140037FE656C20313A2000506C616365206F626AFA
S21400380E65637420617420646573697265642064F0
S21400381E697374616E636520616E64207072657381
S21400382E7320627574746F6E0053657474696E6778
S21400383E206368616E6E656C20323A2000536574A4
S21400384E74696E67206368616E6E656C20333A200D
S21400385E0043616C6962726174696F6E206661699D
S21400386E6C7572653A207772697465206572726F30
S21400387E720A0D00556E6B6E6F776E206572726FE4
S21400388E72207768696C652063616C696272617418
S21400389E696E67206465766963650A0D0043686124
S2140038AE6E6E656C2031207468726573686F6C641A
S2140038BE203D2025640D0A004368616E6E656C20FF
S2140038CE32207468726573686F6C64203D202564C0
S2140038DE0D0A004368616E6E656C20332074687244
S2140038EE6573686F6C64203D2025640D0A00707247
S2140038FE6F7820203D20313A257320323A257320EA
S21400390E333A25730D0A006E6F6E65202000464111
S21400391E52202020004D454449554D004E454152FB
S21400392E20200020000000210000002200000023BE
S21000393E00000007220E2215221C2200AA
S2140200009BB78BBFFB018091CA014093CA017DE971
S21402001070933400E8958093CA019BBF089520919F
S214020020CF0127FDFCCF9BB78BBFFB018091CA0196
S21402003023E22093CA010A01E89511248093CA019B
S2080200409BBF0895BE
S804000000FB
